{
  "_format": "hh-sol-artifact-1",
  "contractName": "Logic",
  "sourceName": "contracts/Logic.sol",
  "abi": [
    {
      "inputs": [
        {
          "internalType": "contract TokenA",
          "name": "_tokenA",
          "type": "address"
        },
        {
          "internalType": "contract NFTB",
          "name": "_nftB",
          "type": "address"
        }
      ],
      "stateMutability": "nonpayable",
      "type": "constructor"
    },
    {
      "inputs": [
        {
          "internalType": "address",
          "name": "owner",
          "type": "address"
        }
      ],
      "name": "OwnableInvalidOwner",
      "type": "error"
    },
    {
      "inputs": [
        {
          "internalType": "address",
          "name": "account",
          "type": "address"
        }
      ],
      "name": "OwnableUnauthorizedAccount",
      "type": "error"
    },
    {
      "anonymous": false,
      "inputs": [
        {
          "indexed": true,
          "internalType": "address",
          "name": "user",
          "type": "address"
        },
        {
          "indexed": false,
          "internalType": "uint256",
          "name": "amount",
          "type": "uint256"
        },
        {
          "indexed": false,
          "internalType": "uint256",
          "name": "timestamp",
          "type": "uint256"
        }
      ],
      "name": "ClaimReward",
      "type": "event"
    },
    {
      "anonymous": false,
      "inputs": [
        {
          "indexed": true,
          "internalType": "address",
          "name": "user",
          "type": "address"
        },
        {
          "indexed": false,
          "internalType": "uint256",
          "name": "tokenId",
          "type": "uint256"
        },
        {
          "indexed": false,
          "internalType": "uint256",
          "name": "timestamp",
          "type": "uint256"
        }
      ],
      "name": "DepositNFTB",
      "type": "event"
    },
    {
      "anonymous": false,
      "inputs": [
        {
          "indexed": true,
          "internalType": "address",
          "name": "user",
          "type": "address"
        },
        {
          "indexed": false,
          "internalType": "uint256",
          "name": "amount",
          "type": "uint256"
        },
        {
          "indexed": false,
          "internalType": "uint256",
          "name": "timestamp",
          "type": "uint256"
        }
      ],
      "name": "DepositTokenA",
      "type": "event"
    },
    {
      "anonymous": false,
      "inputs": [
        {
          "indexed": true,
          "internalType": "address",
          "name": "previousOwner",
          "type": "address"
        },
        {
          "indexed": true,
          "internalType": "address",
          "name": "newOwner",
          "type": "address"
        }
      ],
      "name": "OwnershipTransferred",
      "type": "event"
    },
    {
      "anonymous": false,
      "inputs": [
        {
          "indexed": true,
          "internalType": "address",
          "name": "user",
          "type": "address"
        },
        {
          "indexed": false,
          "internalType": "uint256",
          "name": "tokenId",
          "type": "uint256"
        },
        {
          "indexed": false,
          "internalType": "uint256",
          "name": "timestamp",
          "type": "uint256"
        }
      ],
      "name": "WithdrawNFTB",
      "type": "event"
    },
    {
      "anonymous": false,
      "inputs": [
        {
          "indexed": true,
          "internalType": "address",
          "name": "user",
          "type": "address"
        },
        {
          "indexed": false,
          "internalType": "uint256",
          "name": "amount",
          "type": "uint256"
        },
        {
          "indexed": false,
          "internalType": "uint256",
          "name": "timestamp",
          "type": "uint256"
        }
      ],
      "name": "WithdrawTokenA",
      "type": "event"
    },
    {
      "inputs": [],
      "name": "BASE_APR",
      "outputs": [
        {
          "internalType": "uint8",
          "name": "",
          "type": "uint8"
        }
      ],
      "stateMutability": "view",
      "type": "function"
    },
    {
      "inputs": [],
      "name": "BASE_APR_INCREMENT",
      "outputs": [
        {
          "internalType": "uint8",
          "name": "",
          "type": "uint8"
        }
      ],
      "stateMutability": "view",
      "type": "function"
    },
    {
      "inputs": [],
      "name": "LOCK_TIME",
      "outputs": [
        {
          "internalType": "uint32",
          "name": "",
          "type": "uint32"
        }
      ],
      "stateMutability": "view",
      "type": "function"
    },
    {
      "inputs": [],
      "name": "THRESHOLD",
      "outputs": [
        {
          "internalType": "uint256",
          "name": "",
          "type": "uint256"
        }
      ],
      "stateMutability": "view",
      "type": "function"
    },
    {
      "inputs": [],
      "name": "claimReward",
      "outputs": [],
      "stateMutability": "nonpayable",
      "type": "function"
    },
    {
      "inputs": [
        {
          "internalType": "uint256",
          "name": "_tokenId",
          "type": "uint256"
        }
      ],
      "name": "depositNFTB",
      "outputs": [],
      "stateMutability": "nonpayable",
      "type": "function"
    },
    {
      "inputs": [
        {
          "internalType": "uint256",
          "name": "_amount",
          "type": "uint256"
        }
      ],
      "name": "depositTokenA",
      "outputs": [],
      "stateMutability": "nonpayable",
      "type": "function"
    },
    {
      "inputs": [
        {
          "internalType": "address",
          "name": "",
          "type": "address"
        }
      ],
      "name": "deposits",
      "outputs": [
        {
          "internalType": "uint256",
          "name": "amountTokenA",
          "type": "uint256"
        },
        {
          "internalType": "uint256",
          "name": "nftCount",
          "type": "uint256"
        },
        {
          "internalType": "uint256",
          "name": "timestamp",
          "type": "uint256"
        },
        {
          "internalType": "uint256",
          "name": "timestampDepositTokenA",
          "type": "uint256"
        },
        {
          "internalType": "uint256",
          "name": "interest",
          "type": "uint256"
        },
        {
          "internalType": "uint8",
          "name": "apr",
          "type": "uint8"
        }
      ],
      "stateMutability": "view",
      "type": "function"
    },
    {
      "inputs": [],
      "name": "getAPR",
      "outputs": [
        {
          "internalType": "uint256",
          "name": "",
          "type": "uint256"
        }
      ],
      "stateMutability": "view",
      "type": "function"
    },
    {
      "inputs": [
        {
          "internalType": "address",
          "name": "_user",
          "type": "address"
        }
      ],
      "name": "getDepositInfo",
      "outputs": [
        {
          "internalType": "uint256",
          "name": "amountTokenA",
          "type": "uint256"
        },
        {
          "internalType": "uint256",
          "name": "nftCount",
          "type": "uint256"
        },
        {
          "internalType": "uint256",
          "name": "timestamp",
          "type": "uint256"
        },
        {
          "internalType": "uint256",
          "name": "interest",
          "type": "uint256"
        },
        {
          "internalType": "uint8",
          "name": "apr",
          "type": "uint8"
        }
      ],
      "stateMutability": "view",
      "type": "function"
    },
    {
      "inputs": [
        {
          "internalType": "address",
          "name": "account",
          "type": "address"
        }
      ],
      "name": "getNFTDepositeds",
      "outputs": [
        {
          "internalType": "uint256[]",
          "name": "",
          "type": "uint256[]"
        }
      ],
      "stateMutability": "view",
      "type": "function"
    },
    {
      "inputs": [],
      "name": "nftB",
      "outputs": [
        {
          "internalType": "contract NFTB",
          "name": "",
          "type": "address"
        }
      ],
      "stateMutability": "view",
      "type": "function"
    },
    {
      "inputs": [],
      "name": "owner",
      "outputs": [
        {
          "internalType": "address",
          "name": "",
          "type": "address"
        }
      ],
      "stateMutability": "view",
      "type": "function"
    },
    {
      "inputs": [],
      "name": "renounceOwnership",
      "outputs": [],
      "stateMutability": "nonpayable",
      "type": "function"
    },
    {
      "inputs": [
        {
          "internalType": "uint8",
          "name": "APR",
          "type": "uint8"
        }
      ],
      "name": "setAPR",
      "outputs": [],
      "stateMutability": "nonpayable",
      "type": "function"
    },
    {
      "inputs": [],
      "name": "tokenA",
      "outputs": [
        {
          "internalType": "contract TokenA",
          "name": "",
          "type": "address"
        }
      ],
      "stateMutability": "view",
      "type": "function"
    },
    {
      "inputs": [
        {
          "internalType": "address",
          "name": "newOwner",
          "type": "address"
        }
      ],
      "name": "transferOwnership",
      "outputs": [],
      "stateMutability": "nonpayable",
      "type": "function"
    },
    {
      "inputs": [
        {
          "internalType": "address",
          "name": "_user",
          "type": "address"
        }
      ],
      "name": "updateInterest",
      "outputs": [],
      "stateMutability": "nonpayable",
      "type": "function"
    },
    {
      "inputs": [
        {
          "internalType": "uint256",
          "name": "_tokenId",
          "type": "uint256"
        }
      ],
      "name": "withdrawNFTB",
      "outputs": [],
      "stateMutability": "nonpayable",
      "type": "function"
    },
    {
      "inputs": [
        {
          "internalType": "uint256",
          "name": "_amount",
          "type": "uint256"
        }
      ],
      "name": "withdrawTokenA",
      "outputs": [],
      "stateMutability": "nonpayable",
      "type": "function"
    }
  ],
  "bytecode": "0x60806040526008600260146101000a81548160ff021916908360ff16021790555060028060156101000a81548160ff021916908360ff160217905550601e600260166101000a81548163ffffffff021916908363ffffffff16021790555069d3c21bcecceda10000006003553480156200007857600080fd5b5060405162002b9438038062002b9483398181016040528101906200009e919062000337565b33600073ffffffffffffffffffffffffffffffffffffffff168173ffffffffffffffffffffffffffffffffffffffff1603620001145760006040517f1e4fbdf70000000000000000000000000000000000000000000000000000000081526004016200010b91906200038f565b60405180910390fd5b6200012581620001b060201b60201c565b5081600160006101000a81548173ffffffffffffffffffffffffffffffffffffffff021916908373ffffffffffffffffffffffffffffffffffffffff16021790555080600260006101000a81548173ffffffffffffffffffffffffffffffffffffffff021916908373ffffffffffffffffffffffffffffffffffffffff1602179055505050620003ac565b60008060009054906101000a900473ffffffffffffffffffffffffffffffffffffffff169050816000806101000a81548173ffffffffffffffffffffffffffffffffffffffff021916908373ffffffffffffffffffffffffffffffffffffffff1602179055508173ffffffffffffffffffffffffffffffffffffffff168173ffffffffffffffffffffffffffffffffffffffff167f8be0079c531659141344cd1fd0a4f28419497f9722a3daafe3b4186f6b6457e060405160405180910390a35050565b600080fd5b600073ffffffffffffffffffffffffffffffffffffffff82169050919050565b6000620002a68262000279565b9050919050565b6000620002ba8262000299565b9050919050565b620002cc81620002ad565b8114620002d857600080fd5b50565b600081519050620002ec81620002c1565b92915050565b6000620002ff8262000299565b9050919050565b6200031181620002f2565b81146200031d57600080fd5b50565b600081519050620003318162000306565b92915050565b6000806040838503121562000351576200035062000274565b5b60006200036185828601620002db565b9250506020620003748582860162000320565b9150509250929050565b620003898162000299565b82525050565b6000602082019050620003a660008301846200037e565b92915050565b6127d880620003bc6000396000f3fe608060405234801561001057600080fd5b506004361061012c5760003560e01c8063b88a802f116100ad578063e4fd18c911610071578063e4fd18c9146102eb578063f2fde38b14610309578063f453a8f414610325578063fc06571b14610341578063fc7e286d1461035d5761012c565b8063b88a802f1461025b578063bd8d99f414610265578063c89d5b8b14610281578063ca04220a1461029f578063e4c93be7146102cf5761012c565b8063785ffb37116100f4578063785ffb37146101c95780637b3c5da7146101e75780638da5cb5b146102035780639e30b1e814610221578063b4ea60fc1461023d5761012c565b80630fc63d101461013157806332e2cea81461014f578063413d9c3a1461016d5780635287ce121461018b578063715018a6146101bf575b600080fd5b610139610392565b6040516101469190611c22565b60405180910390f35b6101576103b8565b6040516101649190611c5e565b60405180910390f35b6101756103de565b6040516101829190611c98565b60405180910390f35b6101a560048036038101906101a09190611cf6565b6103f4565b6040516101b6959493929190611d58565b60405180910390f35b6101c7610478565b005b6101d161048c565b6040516101de9190611dab565b60405180910390f35b61020160048036038101906101fc9190611cf6565b610492565b005b61020b610647565b6040516102189190611dd5565b60405180910390f35b61023b60048036038101906102369190611e1c565b610670565b005b610245610bcf565b6040516102529190611e49565b60405180910390f35b610263610be2565b005b61027f600480360381019061027a9190611e90565b610df3565b005b610289610e19565b6040516102969190611dab565b60405180910390f35b6102b960048036038101906102b49190611cf6565b610e33565b6040516102c69190611f7b565b60405180910390f35b6102e960048036038101906102e49190611e1c565b610eca565b005b6102f3611190565b6040516103009190611e49565b60405180910390f35b610323600480360381019061031e9190611cf6565b6111a3565b005b61033f600480360381019061033a9190611e1c565b611229565b005b61035b60048036038101906103569190611e1c565b6115af565b005b61037760048036038101906103729190611cf6565b611a07565b60405161038996959493929190611f9d565b60405180910390f35b600160009054906101000a900473ffffffffffffffffffffffffffffffffffffffff1681565b600260009054906101000a900473ffffffffffffffffffffffffffffffffffffffff1681565b600260169054906101000a900463ffffffff1681565b600080600080600080600460008873ffffffffffffffffffffffffffffffffffffffff1673ffffffffffffffffffffffffffffffffffffffff168152602001908152602001600020905080600001548160010154826002015483600401548460050160009054906101000a900460ff16955095509550955095505091939590929450565b610480611a50565b61048a6000611ad7565b565b60035481565b6000600460008373ffffffffffffffffffffffffffffffffffffffff1673ffffffffffffffffffffffffffffffffffffffff16815260200190815260200160002060020154426104e2919061202d565b905060006301e1338082600460008673ffffffffffffffffffffffffffffffffffffffff1673ffffffffffffffffffffffffffffffffffffffff16815260200190815260200160002060050160009054906101000a900460ff1660ff16600460008773ffffffffffffffffffffffffffffffffffffffff1673ffffffffffffffffffffffffffffffffffffffff1681526020019081526020016000206000015461058c9190612061565b6105969190612061565b6105a091906120d2565b905080600460008573ffffffffffffffffffffffffffffffffffffffff1673ffffffffffffffffffffffffffffffffffffffff16815260200190815260200160002060040160008282546105f49190612103565b9250508190555042600460008573ffffffffffffffffffffffffffffffffffffffff1673ffffffffffffffffffffffffffffffffffffffff16815260200190815260200160002060020181905550505050565b60008060009054906101000a900473ffffffffffffffffffffffffffffffffffffffff16905090565b61067933610492565b600081116106bc576040517f08c379a00000000000000000000000000000000000000000000000000000000081526004016106b390612194565b60405180910390fd5b80600160009054906101000a900473ffffffffffffffffffffffffffffffffffffffff1673ffffffffffffffffffffffffffffffffffffffff1663dd62ed3e33306040518363ffffffff1660e01b815260040161071a9291906121b4565b602060405180830381865afa158015610737573d6000803e3d6000fd5b505050506040513d601f19601f8201168201806040525081019061075b91906121f2565b101561079c576040517f08c379a00000000000000000000000000000000000000000000000000000000081526004016107939061226b565b60405180910390fd5b6000600460003373ffffffffffffffffffffffffffffffffffffffff1673ffffffffffffffffffffffffffffffffffffffff168152602001908152602001600020600001540361089957600260149054906101000a900460ff16600460003373ffffffffffffffffffffffffffffffffffffffff1673ffffffffffffffffffffffffffffffffffffffff16815260200190815260200160002060050160006101000a81548160ff021916908360ff1602179055506000600460003373ffffffffffffffffffffffffffffffffffffffff1673ffffffffffffffffffffffffffffffffffffffff168152602001908152602001600020600401819055505b80600460003373ffffffffffffffffffffffffffffffffffffffff1673ffffffffffffffffffffffffffffffffffffffff16815260200190815260200160002060000160008282546108eb9190612103565b9250508190555042600460003373ffffffffffffffffffffffffffffffffffffffff1673ffffffffffffffffffffffffffffffffffffffff168152602001908152602001600020600301819055506000600460003373ffffffffffffffffffffffffffffffffffffffff1673ffffffffffffffffffffffffffffffffffffffff16815260200190815260200160002060010154600354600460003373ffffffffffffffffffffffffffffffffffffffff1673ffffffffffffffffffffffffffffffffffffffff168152602001908152602001600020600001546109ce91906120d2565b6109d8919061202d565b905060005b81811015610ad757600260009054906101000a900473ffffffffffffffffffffffffffffffffffffffff1673ffffffffffffffffffffffffffffffffffffffff16636a627842336040518263ffffffff1660e01b8152600401610a409190611dd5565b600060405180830381600087803b158015610a5a57600080fd5b505af1158015610a6e573d6000803e3d6000fd5b50505050600460003373ffffffffffffffffffffffffffffffffffffffff1673ffffffffffffffffffffffffffffffffffffffff1681526020019081526020016000206001016000815480929190610ac59061228b565b919050555080806001019150506109dd565b503373ffffffffffffffffffffffffffffffffffffffff167fd7210949ddd56ad0fea7fbc8948af686546c2f5258b85d85f5d3fd4655a5352d8342604051610b209291906122d3565b60405180910390a2600160009054906101000a900473ffffffffffffffffffffffffffffffffffffffff1673ffffffffffffffffffffffffffffffffffffffff166323b872dd3330856040518463ffffffff1660e01b8152600401610b87939291906122fc565b6020604051808303816000875af1158015610ba6573d6000803e3d6000fd5b505050506040513d601f19601f82011682018060405250810190610bca919061236b565b505050565b600260159054906101000a900460ff1681565b610beb33610492565b6000600460003373ffffffffffffffffffffffffffffffffffffffff1673ffffffffffffffffffffffffffffffffffffffff1681526020019081526020016000206000015411610c70576040517f08c379a0000000000000000000000000000000000000000000000000000000008152600401610c67906123e4565b60405180910390fd5b6000600460003373ffffffffffffffffffffffffffffffffffffffff1673ffffffffffffffffffffffffffffffffffffffff1681526020019081526020016000206004015490506000600460003373ffffffffffffffffffffffffffffffffffffffff1673ffffffffffffffffffffffffffffffffffffffff168152602001908152602001600020600401819055503373ffffffffffffffffffffffffffffffffffffffff167fe74e5c9d4ac1fc33412485f18c159a0a391efe287ab3fd271123f30e6bacf4e38242604051610d479291906122d3565b60405180910390a2600160009054906101000a900473ffffffffffffffffffffffffffffffffffffffff1673ffffffffffffffffffffffffffffffffffffffff1663a9059cbb33836040518363ffffffff1660e01b8152600401610dac929190612404565b6020604051808303816000875af1158015610dcb573d6000803e3d6000fd5b505050506040513d601f19601f82011682018060405250810190610def919061236b565b5050565b610dfb611a50565b80600260146101000a81548160ff021916908360ff16021790555050565b6000600260149054906101000a900460ff1660ff16905090565b6060600560008373ffffffffffffffffffffffffffffffffffffffff1673ffffffffffffffffffffffffffffffffffffffff168152602001908152602001600020805480602002602001604051908101604052809291908181526020018280548015610ebe57602002820191906000526020600020905b815481526020019060010190808311610eaa575b50505050509050919050565b610ed333610492565b60008111610f16576040517f08c379a0000000000000000000000000000000000000000000000000000000008152600401610f0d90612194565b60405180910390fd5b80600460003373ffffffffffffffffffffffffffffffffffffffff1673ffffffffffffffffffffffffffffffffffffffff168152602001908152602001600020600001541015610f9b576040517f08c379a0000000000000000000000000000000000000000000000000000000008152600401610f9290612479565b60405180910390fd5b600260169054906101000a900463ffffffff1663ffffffff16600460003373ffffffffffffffffffffffffffffffffffffffff1673ffffffffffffffffffffffffffffffffffffffff1681526020019081526020016000206003015442611002919061202d565b1015611043576040517f08c379a000000000000000000000000000000000000000000000000000000000815260040161103a906124e5565b60405180910390fd5b80600460003373ffffffffffffffffffffffffffffffffffffffff1673ffffffffffffffffffffffffffffffffffffffff1681526020019081526020016000206000016000828254611095919061202d565b925050819055503373ffffffffffffffffffffffffffffffffffffffff167fbeaca2bab4d701ffc02ef505ed5589fe9f722e358c45d3bfb8bd17e8e6a5e02a82426040516110e49291906122d3565b60405180910390a2600160009054906101000a900473ffffffffffffffffffffffffffffffffffffffff1673ffffffffffffffffffffffffffffffffffffffff1663a9059cbb33836040518363ffffffff1660e01b8152600401611149929190612404565b6020604051808303816000875af1158015611168573d6000803e3d6000fd5b505050506040513d601f19601f8201168201806040525081019061118c919061236b565b5050565b600260149054906101000a900460ff1681565b6111ab611a50565b600073ffffffffffffffffffffffffffffffffffffffff168173ffffffffffffffffffffffffffffffffffffffff160361121d5760006040517f1e4fbdf70000000000000000000000000000000000000000000000000000000081526004016112149190611dd5565b60405180910390fd5b61122681611ad7565b50565b61123233610492565b3373ffffffffffffffffffffffffffffffffffffffff16600260009054906101000a900473ffffffffffffffffffffffffffffffffffffffff1673ffffffffffffffffffffffffffffffffffffffff16636352211e836040518263ffffffff1660e01b81526004016112a49190611dab565b602060405180830381865afa1580156112c1573d6000803e3d6000fd5b505050506040513d601f19601f820116820180604052508101906112e5919061251a565b73ffffffffffffffffffffffffffffffffffffffff161461133b576040517f08c379a000000000000000000000000000000000000000000000000000000000815260040161133290612593565b60405180910390fd5b600460003373ffffffffffffffffffffffffffffffffffffffff1673ffffffffffffffffffffffffffffffffffffffff168152602001908152602001600020600101600081548092919061138e9061228b565b9190505550600260159054906101000a900460ff16600460003373ffffffffffffffffffffffffffffffffffffffff1673ffffffffffffffffffffffffffffffffffffffff16815260200190815260200160002060050160008282829054906101000a900460ff1661140091906125b3565b92506101000a81548160ff021916908360ff16021790555042600460003373ffffffffffffffffffffffffffffffffffffffff1673ffffffffffffffffffffffffffffffffffffffff168152602001908152602001600020600201819055506000600560003373ffffffffffffffffffffffffffffffffffffffff1673ffffffffffffffffffffffffffffffffffffffff1681526020019081526020016000209050808290806001815401808255809150506001900390600052602060002001600090919091909150553373ffffffffffffffffffffffffffffffffffffffff167fc865e78c42df7cc90b347a270055e15b892770e01974a967a64b2b4c29f34dbf83426040516115129291906122d3565b60405180910390a2600260009054906101000a900473ffffffffffffffffffffffffffffffffffffffff1673ffffffffffffffffffffffffffffffffffffffff166323b872dd3330856040518463ffffffff1660e01b8152600401611579939291906122fc565b600060405180830381600087803b15801561159357600080fd5b505af11580156115a7573d6000803e3d6000fd5b505050505050565b6115b833610492565b6000600560003373ffffffffffffffffffffffffffffffffffffffff1673ffffffffffffffffffffffffffffffffffffffff168152602001908152602001600020805490501161163d576040517f08c379a00000000000000000000000000000000000000000000000000000000081526004016116349061265a565b60405180910390fd5b3073ffffffffffffffffffffffffffffffffffffffff16600260009054906101000a900473ffffffffffffffffffffffffffffffffffffffff1673ffffffffffffffffffffffffffffffffffffffff16636352211e836040518263ffffffff1660e01b81526004016116af9190611dab565b602060405180830381865afa1580156116cc573d6000803e3d6000fd5b505050506040513d601f19601f820116820180604052508101906116f0919061251a565b73ffffffffffffffffffffffffffffffffffffffff1614611746576040517f08c379a000000000000000000000000000000000000000000000000000000000815260040161173d906126c6565b60405180910390fd5b600460003373ffffffffffffffffffffffffffffffffffffffff1673ffffffffffffffffffffffffffffffffffffffff1681526020019081526020016000206001016000815480929190611799906126e6565b9190505550600260159054906101000a900460ff16600460003373ffffffffffffffffffffffffffffffffffffffff1673ffffffffffffffffffffffffffffffffffffffff16815260200190815260200160002060050160008282829054906101000a900460ff1661180b919061270f565b92506101000a81548160ff021916908360ff1602179055506000600560003373ffffffffffffffffffffffffffffffffffffffff1673ffffffffffffffffffffffffffffffffffffffff168152602001908152602001600020905060005b8180549050811015611921578282828154811061188957611888612744565b5b9060005260206000200154036119145781600183805490506118ab919061202d565b815481106118bc576118bb612744565b5b90600052602060002001548282815481106118da576118d9612744565b5b9060005260206000200181905550818054806118f9576118f8612773565b5b60019003818190600052602060002001600090559055611921565b8080600101915050611869565b503373ffffffffffffffffffffffffffffffffffffffff167f8f36718dd3717b5daa0afde2203476b3511e4a9cd9cdd730c8ff75758943f173834260405161196a9291906122d3565b60405180910390a2600260009054906101000a900473ffffffffffffffffffffffffffffffffffffffff1673ffffffffffffffffffffffffffffffffffffffff166323b872dd3033856040518463ffffffff1660e01b81526004016119d1939291906122fc565b600060405180830381600087803b1580156119eb57600080fd5b505af11580156119ff573d6000803e3d6000fd5b505050505050565b60046020528060005260406000206000915090508060000154908060010154908060020154908060030154908060040154908060050160009054906101000a900460ff16905086565b611a58611b9b565b73ffffffffffffffffffffffffffffffffffffffff16611a76610647565b73ffffffffffffffffffffffffffffffffffffffff1614611ad557611a99611b9b565b6040517f118cdaa7000000000000000000000000000000000000000000000000000000008152600401611acc9190611dd5565b60405180910390fd5b565b60008060009054906101000a900473ffffffffffffffffffffffffffffffffffffffff169050816000806101000a81548173ffffffffffffffffffffffffffffffffffffffff021916908373ffffffffffffffffffffffffffffffffffffffff1602179055508173ffffffffffffffffffffffffffffffffffffffff168173ffffffffffffffffffffffffffffffffffffffff167f8be0079c531659141344cd1fd0a4f28419497f9722a3daafe3b4186f6b6457e060405160405180910390a35050565b600033905090565b600073ffffffffffffffffffffffffffffffffffffffff82169050919050565b6000819050919050565b6000611be8611be3611bde84611ba3565b611bc3565b611ba3565b9050919050565b6000611bfa82611bcd565b9050919050565b6000611c0c82611bef565b9050919050565b611c1c81611c01565b82525050565b6000602082019050611c376000830184611c13565b92915050565b6000611c4882611bef565b9050919050565b611c5881611c3d565b82525050565b6000602082019050611c736000830184611c4f565b92915050565b600063ffffffff82169050919050565b611c9281611c79565b82525050565b6000602082019050611cad6000830184611c89565b92915050565b600080fd5b6000611cc382611ba3565b9050919050565b611cd381611cb8565b8114611cde57600080fd5b50565b600081359050611cf081611cca565b92915050565b600060208284031215611d0c57611d0b611cb3565b5b6000611d1a84828501611ce1565b91505092915050565b6000819050919050565b611d3681611d23565b82525050565b600060ff82169050919050565b611d5281611d3c565b82525050565b600060a082019050611d6d6000830188611d2d565b611d7a6020830187611d2d565b611d876040830186611d2d565b611d946060830185611d2d565b611da16080830184611d49565b9695505050505050565b6000602082019050611dc06000830184611d2d565b92915050565b611dcf81611cb8565b82525050565b6000602082019050611dea6000830184611dc6565b92915050565b611df981611d23565b8114611e0457600080fd5b50565b600081359050611e1681611df0565b92915050565b600060208284031215611e3257611e31611cb3565b5b6000611e4084828501611e07565b91505092915050565b6000602082019050611e5e6000830184611d49565b92915050565b611e6d81611d3c565b8114611e7857600080fd5b50565b600081359050611e8a81611e64565b92915050565b600060208284031215611ea657611ea5611cb3565b5b6000611eb484828501611e7b565b91505092915050565b600081519050919050565b600082825260208201905092915050565b6000819050602082019050919050565b611ef281611d23565b82525050565b6000611f048383611ee9565b60208301905092915050565b6000602082019050919050565b6000611f2882611ebd565b611f328185611ec8565b9350611f3d83611ed9565b8060005b83811015611f6e578151611f558882611ef8565b9750611f6083611f10565b925050600181019050611f41565b5085935050505092915050565b60006020820190508181036000830152611f958184611f1d565b905092915050565b600060c082019050611fb26000830189611d2d565b611fbf6020830188611d2d565b611fcc6040830187611d2d565b611fd96060830186611d2d565b611fe66080830185611d2d565b611ff360a0830184611d49565b979650505050505050565b7f4e487b7100000000000000000000000000000000000000000000000000000000600052601160045260246000fd5b600061203882611d23565b915061204383611d23565b925082820390508181111561205b5761205a611ffe565b5b92915050565b600061206c82611d23565b915061207783611d23565b925082820261208581611d23565b9150828204841483151761209c5761209b611ffe565b5b5092915050565b7f4e487b7100000000000000000000000000000000000000000000000000000000600052601260045260246000fd5b60006120dd82611d23565b91506120e883611d23565b9250826120f8576120f76120a3565b5b828204905092915050565b600061210e82611d23565b915061211983611d23565b925082820190508082111561213157612130611ffe565b5b92915050565b600082825260208201905092915050565b7f416d6f756e74206d7573742062652067726561746572207468616e2030000000600082015250565b600061217e601d83612137565b915061218982612148565b602082019050919050565b600060208201905081810360008301526121ad81612171565b9050919050565b60006040820190506121c96000830185611dc6565b6121d66020830184611dc6565b9392505050565b6000815190506121ec81611df0565b92915050565b60006020828403121561220857612207611cb3565b5b6000612216848285016121dd565b91505092915050565b7f496e73756666696369656e7420616c6c6f77616e636500000000000000000000600082015250565b6000612255601683612137565b91506122608261221f565b602082019050919050565b6000602082019050818103600083015261228481612248565b9050919050565b600061229682611d23565b91507fffffffffffffffffffffffffffffffffffffffffffffffffffffffffffffffff82036122c8576122c7611ffe565b5b600182019050919050565b60006040820190506122e86000830185611d2d565b6122f56020830184611d2d565b9392505050565b60006060820190506123116000830186611dc6565b61231e6020830185611dc6565b61232b6040830184611d2d565b949350505050565b60008115159050919050565b61234881612333565b811461235357600080fd5b50565b6000815190506123658161233f565b92915050565b60006020828403121561238157612380611cb3565b5b600061238f84828501612356565b91505092915050565b7f4e6f20746f6b656e73206465706f736974656400000000000000000000000000600082015250565b60006123ce601383612137565b91506123d982612398565b602082019050919050565b600060208201905081810360008301526123fd816123c1565b9050919050565b60006040820190506124196000830185611dc6565b6124266020830184611d2d565b9392505050565b7f496e73756666696369656e742062616c616e6365000000000000000000000000600082015250565b6000612463601483612137565b915061246e8261242d565b602082019050919050565b6000602082019050818103600083015261249281612456565b9050919050565b7f546f6b656e7320617265206c6f636b6564000000000000000000000000000000600082015250565b60006124cf601183612137565b91506124da82612499565b602082019050919050565b600060208201905081810360008301526124fe816124c2565b9050919050565b60008151905061251481611cca565b92915050565b6000602082840312156125305761252f611cb3565b5b600061253e84828501612505565b91505092915050565b7f596f7520646f206e6f74206f776e2074686973204e4654000000000000000000600082015250565b600061257d601783612137565b915061258882612547565b602082019050919050565b600060208201905081810360008301526125ac81612570565b9050919050565b60006125be82611d3c565b91506125c983611d3c565b9250828201905060ff8111156125e2576125e1611ffe565b5b92915050565b7f596f7520646f6e2774206861766520616e79204e465473206465706f7369746560008201527f6400000000000000000000000000000000000000000000000000000000000000602082015250565b6000612644602183612137565b915061264f826125e8565b604082019050919050565b6000602082019050818103600083015261267381612637565b9050919050565b7f4e4654206973206e6f74206465706f7369746564000000000000000000000000600082015250565b60006126b0601483612137565b91506126bb8261267a565b602082019050919050565b600060208201905081810360008301526126df816126a3565b9050919050565b60006126f182611d23565b91506000820361270457612703611ffe565b5b600182039050919050565b600061271a82611d3c565b915061272583611d3c565b9250828203905060ff81111561273e5761273d611ffe565b5b92915050565b7f4e487b7100000000000000000000000000000000000000000000000000000000600052603260045260246000fd5b7f4e487b7100000000000000000000000000000000000000000000000000000000600052603160045260246000fdfea2646970667358221220b1e8fd61d1b24f92510fa79a996a4a05674bc5b2fb4389a74490de444d0e818564736f6c63430008180033",
  "linkReferences": {},
  "deployedLinkReferences": {}
}