{
  "_format": "hh-sol-artifact-1",
  "contractName": "NFTB",
  "sourceName": "contracts/NFTB.sol",
  "abi": [
    {
      "inputs": [],
      "stateMutability": "nonpayable",
      "type": "constructor"
    },
    {
      "inputs": [
        {
          "internalType": "address",
          "name": "sender",
          "type": "address"
        },
        {
          "internalType": "uint256",
          "name": "tokenId",
          "type": "uint256"
        },
        {
          "internalType": "address",
          "name": "owner",
          "type": "address"
        }
      ],
      "name": "ERC721IncorrectOwner",
      "type": "error"
    },
    {
      "inputs": [
        {
          "internalType": "address",
          "name": "operator",
          "type": "address"
        },
        {
          "internalType": "uint256",
          "name": "tokenId",
          "type": "uint256"
        }
      ],
      "name": "ERC721InsufficientApproval",
      "type": "error"
    },
    {
      "inputs": [
        {
          "internalType": "address",
          "name": "approver",
          "type": "address"
        }
      ],
      "name": "ERC721InvalidApprover",
      "type": "error"
    },
    {
      "inputs": [
        {
          "internalType": "address",
          "name": "operator",
          "type": "address"
        }
      ],
      "name": "ERC721InvalidOperator",
      "type": "error"
    },
    {
      "inputs": [
        {
          "internalType": "address",
          "name": "owner",
          "type": "address"
        }
      ],
      "name": "ERC721InvalidOwner",
      "type": "error"
    },
    {
      "inputs": [
        {
          "internalType": "address",
          "name": "receiver",
          "type": "address"
        }
      ],
      "name": "ERC721InvalidReceiver",
      "type": "error"
    },
    {
      "inputs": [
        {
          "internalType": "address",
          "name": "sender",
          "type": "address"
        }
      ],
      "name": "ERC721InvalidSender",
      "type": "error"
    },
    {
      "inputs": [
        {
          "internalType": "uint256",
          "name": "tokenId",
          "type": "uint256"
        }
      ],
      "name": "ERC721NonexistentToken",
      "type": "error"
    },
    {
      "anonymous": false,
      "inputs": [
        {
          "indexed": true,
          "internalType": "address",
          "name": "owner",
          "type": "address"
        },
        {
          "indexed": true,
          "internalType": "address",
          "name": "approved",
          "type": "address"
        },
        {
          "indexed": true,
          "internalType": "uint256",
          "name": "tokenId",
          "type": "uint256"
        }
      ],
      "name": "Approval",
      "type": "event"
    },
    {
      "anonymous": false,
      "inputs": [
        {
          "indexed": true,
          "internalType": "address",
          "name": "owner",
          "type": "address"
        },
        {
          "indexed": true,
          "internalType": "address",
          "name": "operator",
          "type": "address"
        },
        {
          "indexed": false,
          "internalType": "bool",
          "name": "approved",
          "type": "bool"
        }
      ],
      "name": "ApprovalForAll",
      "type": "event"
    },
    {
      "anonymous": false,
      "inputs": [
        {
          "indexed": true,
          "internalType": "address",
          "name": "from",
          "type": "address"
        },
        {
          "indexed": true,
          "internalType": "address",
          "name": "to",
          "type": "address"
        },
        {
          "indexed": true,
          "internalType": "uint256",
          "name": "tokenId",
          "type": "uint256"
        }
      ],
      "name": "Transfer",
      "type": "event"
    },
    {
      "inputs": [
        {
          "internalType": "address",
          "name": "to",
          "type": "address"
        },
        {
          "internalType": "uint256",
          "name": "tokenId",
          "type": "uint256"
        }
      ],
      "name": "approve",
      "outputs": [],
      "stateMutability": "nonpayable",
      "type": "function"
    },
    {
      "inputs": [
        {
          "internalType": "address",
          "name": "owner",
          "type": "address"
        }
      ],
      "name": "balanceOf",
      "outputs": [
        {
          "internalType": "uint256",
          "name": "",
          "type": "uint256"
        }
      ],
      "stateMutability": "view",
      "type": "function"
    },
    {
      "inputs": [
        {
          "internalType": "uint256",
          "name": "tokenId",
          "type": "uint256"
        }
      ],
      "name": "getApproved",
      "outputs": [
        {
          "internalType": "address",
          "name": "",
          "type": "address"
        }
      ],
      "stateMutability": "view",
      "type": "function"
    },
    {
      "inputs": [
        {
          "internalType": "address",
          "name": "owner",
          "type": "address"
        }
      ],
      "name": "getBalanceNFT",
      "outputs": [
        {
          "internalType": "uint256",
          "name": "",
          "type": "uint256"
        }
      ],
      "stateMutability": "view",
      "type": "function"
    },
    {
      "inputs": [
        {
          "internalType": "address",
          "name": "owner",
          "type": "address"
        }
      ],
      "name": "getOwnedTokens",
      "outputs": [
        {
          "internalType": "uint256[]",
          "name": "",
          "type": "uint256[]"
        }
      ],
      "stateMutability": "view",
      "type": "function"
    },
    {
      "inputs": [
        {
          "internalType": "address",
          "name": "owner",
          "type": "address"
        },
        {
          "internalType": "address",
          "name": "operator",
          "type": "address"
        }
      ],
      "name": "isApprovedForAll",
      "outputs": [
        {
          "internalType": "bool",
          "name": "",
          "type": "bool"
        }
      ],
      "stateMutability": "view",
      "type": "function"
    },
    {
      "inputs": [
        {
          "internalType": "address",
          "name": "_to",
          "type": "address"
        }
      ],
      "name": "mint",
      "outputs": [],
      "stateMutability": "nonpayable",
      "type": "function"
    },
    {
      "inputs": [],
      "name": "name",
      "outputs": [
        {
          "internalType": "string",
          "name": "",
          "type": "string"
        }
      ],
      "stateMutability": "view",
      "type": "function"
    },
    {
      "inputs": [
        {
          "internalType": "uint256",
          "name": "tokenId",
          "type": "uint256"
        }
      ],
      "name": "ownerOf",
      "outputs": [
        {
          "internalType": "address",
          "name": "",
          "type": "address"
        }
      ],
      "stateMutability": "view",
      "type": "function"
    },
    {
      "inputs": [
        {
          "internalType": "address",
          "name": "from",
          "type": "address"
        },
        {
          "internalType": "address",
          "name": "to",
          "type": "address"
        },
        {
          "internalType": "uint256",
          "name": "tokenId",
          "type": "uint256"
        }
      ],
      "name": "safeTransferFrom",
      "outputs": [],
      "stateMutability": "nonpayable",
      "type": "function"
    },
    {
      "inputs": [
        {
          "internalType": "address",
          "name": "from",
          "type": "address"
        },
        {
          "internalType": "address",
          "name": "to",
          "type": "address"
        },
        {
          "internalType": "uint256",
          "name": "tokenId",
          "type": "uint256"
        },
        {
          "internalType": "bytes",
          "name": "data",
          "type": "bytes"
        }
      ],
      "name": "safeTransferFrom",
      "outputs": [],
      "stateMutability": "nonpayable",
      "type": "function"
    },
    {
      "inputs": [
        {
          "internalType": "address",
          "name": "operator",
          "type": "address"
        },
        {
          "internalType": "bool",
          "name": "approved",
          "type": "bool"
        }
      ],
      "name": "setApprovalForAll",
      "outputs": [],
      "stateMutability": "nonpayable",
      "type": "function"
    },
    {
      "inputs": [
        {
          "internalType": "bytes4",
          "name": "interfaceId",
          "type": "bytes4"
        }
      ],
      "name": "supportsInterface",
      "outputs": [
        {
          "internalType": "bool",
          "name": "",
          "type": "bool"
        }
      ],
      "stateMutability": "view",
      "type": "function"
    },
    {
      "inputs": [],
      "name": "symbol",
      "outputs": [
        {
          "internalType": "string",
          "name": "",
          "type": "string"
        }
      ],
      "stateMutability": "view",
      "type": "function"
    },
    {
      "inputs": [
        {
          "internalType": "uint256",
          "name": "tokenId",
          "type": "uint256"
        }
      ],
      "name": "tokenURI",
      "outputs": [
        {
          "internalType": "string",
          "name": "",
          "type": "string"
        }
      ],
      "stateMutability": "view",
      "type": "function"
    },
    {
      "inputs": [
        {
          "internalType": "address",
          "name": "from",
          "type": "address"
        },
        {
          "internalType": "address",
          "name": "to",
          "type": "address"
        },
        {
          "internalType": "uint256",
          "name": "tokenId",
          "type": "uint256"
        }
      ],
      "name": "transferFrom",
      "outputs": [],
      "stateMutability": "nonpayable",
      "type": "function"
    }
  ],
  "bytecode": "0x60806040523480156200001157600080fd5b506040518060400160405280600481526020017f4e465442000000000000000000000000000000000000000000000000000000008152506040518060400160405280600481526020017f4e4654420000000000000000000000000000000000000000000000000000000081525081600090816200008f91906200032c565b508060019081620000a191906200032c565b505050600060068190555062000413565b600081519050919050565b7f4e487b7100000000000000000000000000000000000000000000000000000000600052604160045260246000fd5b7f4e487b7100000000000000000000000000000000000000000000000000000000600052602260045260246000fd5b600060028204905060018216806200013457607f821691505b6020821081036200014a5762000149620000ec565b5b50919050565b60008190508160005260206000209050919050565b60006020601f8301049050919050565b600082821b905092915050565b600060088302620001b47fffffffffffffffffffffffffffffffffffffffffffffffffffffffffffffffff8262000175565b620001c0868362000175565b95508019841693508086168417925050509392505050565b6000819050919050565b6000819050919050565b60006200020d620002076200020184620001d8565b620001e2565b620001d8565b9050919050565b6000819050919050565b6200022983620001ec565b62000241620002388262000214565b84845462000182565b825550505050565b600090565b6200025862000249565b620002658184846200021e565b505050565b5b818110156200028d57620002816000826200024e565b6001810190506200026b565b5050565b601f821115620002dc57620002a68162000150565b620002b18462000165565b81016020851015620002c1578190505b620002d9620002d08562000165565b8301826200026a565b50505b505050565b600082821c905092915050565b60006200030160001984600802620002e1565b1980831691505092915050565b60006200031c8383620002ee565b9150826002028217905092915050565b6200033782620000b2565b67ffffffffffffffff811115620003535762000352620000bd565b5b6200035f82546200011b565b6200036c82828562000291565b600060209050601f831160018114620003a457600084156200038f578287015190505b6200039b85826200030e565b8655506200040b565b601f198416620003b48662000150565b60005b82811015620003de57848901518255600182019150602085019450602081019050620003b7565b86831015620003fe5784890151620003fa601f891682620002ee565b8355505b6001600288020188555050505b505050505050565b6120d980620004236000396000f3fe608060405234801561001057600080fd5b50600436106101005760003560e01c80636a62784211610097578063b88d4fde11610066578063b88d4fde146102bd578063c87b56dd146102d9578063d9d6165514610309578063e985e9c51461033957610100565b80636a6278421461023757806370a082311461025357806395d89b4114610283578063a22cb465146102a157610100565b8063095ea7b3116100d3578063095ea7b3146101b357806323b872dd146101cf57806342842e0e146101eb5780636352211e1461020757610100565b806301ffc9a714610105578063062d49d41461013557806306fdde0314610165578063081812fc14610183575b600080fd5b61011f600480360381019061011a91906117e0565b610369565b60405161012c9190611828565b60405180910390f35b61014f600480360381019061014a91906118a1565b61044b565b60405161015c91906118e7565b60405180910390f35b61016d61045d565b60405161017a9190611992565b60405180910390f35b61019d600480360381019061019891906119e0565b6104ef565b6040516101aa9190611a1c565b60405180910390f35b6101cd60048036038101906101c89190611a37565b61050b565b005b6101e960048036038101906101e49190611a77565b610521565b005b61020560048036038101906102009190611a77565b610623565b005b610221600480360381019061021c91906119e0565b610643565b60405161022e9190611a1c565b60405180910390f35b610251600480360381019061024c91906118a1565b610655565b005b61026d600480360381019061026891906118a1565b6106e6565b60405161027a91906118e7565b60405180910390f35b61028b6107a0565b6040516102989190611992565b60405180910390f35b6102bb60048036038101906102b69190611af6565b610832565b005b6102d760048036038101906102d29190611c6b565b610848565b005b6102f360048036038101906102ee91906119e0565b610865565b6040516103009190611992565b60405180910390f35b610323600480360381019061031e91906118a1565b6108ce565b6040516103309190611dac565b60405180910390f35b610353600480360381019061034e9190611dce565b610965565b6040516103609190611828565b60405180910390f35b60007f80ac58cd000000000000000000000000000000000000000000000000000000007bffffffffffffffffffffffffffffffffffffffffffffffffffffffff1916827bffffffffffffffffffffffffffffffffffffffffffffffffffffffff1916148061043457507f5b5e139f000000000000000000000000000000000000000000000000000000007bffffffffffffffffffffffffffffffffffffffffffffffffffffffff1916827bffffffffffffffffffffffffffffffffffffffffffffffffffffffff1916145b806104445750610443826109f9565b5b9050919050565b6000610456826106e6565b9050919050565b60606000805461046c90611e3d565b80601f016020809104026020016040519081016040528092919081815260200182805461049890611e3d565b80156104e55780601f106104ba576101008083540402835291602001916104e5565b820191906000526020600020905b8154815290600101906020018083116104c857829003601f168201915b5050505050905090565b60006104fa82610a63565b5061050482610aeb565b9050919050565b61051d8282610518610b28565b610b30565b5050565b600073ffffffffffffffffffffffffffffffffffffffff168273ffffffffffffffffffffffffffffffffffffffff16036105935760006040517f64a0ae9200000000000000000000000000000000000000000000000000000000815260040161058a9190611a1c565b60405180910390fd5b60006105a783836105a2610b28565b610b42565b90508373ffffffffffffffffffffffffffffffffffffffff168173ffffffffffffffffffffffffffffffffffffffff161461061d578382826040517f64283d7b00000000000000000000000000000000000000000000000000000000815260040161061493929190611e6e565b60405180910390fd5b50505050565b61063e83838360405180602001604052806000815250610848565b505050565b600061064e82610a63565b9050919050565b61066181600654610d5c565b600760008273ffffffffffffffffffffffffffffffffffffffff1673ffffffffffffffffffffffffffffffffffffffff16815260200190815260200160002060065490806001815401808255809150506001900390600052602060002001600090919091909150556001600660008282546106dc9190611ed4565b9250508190555050565b60008073ffffffffffffffffffffffffffffffffffffffff168273ffffffffffffffffffffffffffffffffffffffff16036107595760006040517f89c62b640000000000000000000000000000000000000000000000000000000081526004016107509190611a1c565b60405180910390fd5b600360008373ffffffffffffffffffffffffffffffffffffffff1673ffffffffffffffffffffffffffffffffffffffff168152602001908152602001600020549050919050565b6060600180546107af90611e3d565b80601f01602080910402602001604051908101604052809291908181526020018280546107db90611e3d565b80156108285780601f106107fd57610100808354040283529160200191610828565b820191906000526020600020905b81548152906001019060200180831161080b57829003601f168201915b5050505050905090565b61084461083d610b28565b8383610d7a565b5050565b610853848484610521565b61085f84848484610ee9565b50505050565b606061087082610a63565b50600061087b6110a0565b9050600081511161089b57604051806020016040528060008152506108c6565b806108a5846110b7565b6040516020016108b6929190611f44565b6040516020818303038152906040525b915050919050565b6060600760008373ffffffffffffffffffffffffffffffffffffffff1673ffffffffffffffffffffffffffffffffffffffff16815260200190815260200160002080548060200260200160405190810160405280929190818152602001828054801561095957602002820191906000526020600020905b815481526020019060010190808311610945575b50505050509050919050565b6000600560008473ffffffffffffffffffffffffffffffffffffffff1673ffffffffffffffffffffffffffffffffffffffff16815260200190815260200160002060008373ffffffffffffffffffffffffffffffffffffffff1673ffffffffffffffffffffffffffffffffffffffff16815260200190815260200160002060009054906101000a900460ff16905092915050565b60007f01ffc9a7000000000000000000000000000000000000000000000000000000007bffffffffffffffffffffffffffffffffffffffffffffffffffffffff1916827bffffffffffffffffffffffffffffffffffffffffffffffffffffffff1916149050919050565b600080610a6f83611185565b9050600073ffffffffffffffffffffffffffffffffffffffff168173ffffffffffffffffffffffffffffffffffffffff1603610ae257826040517f7e273289000000000000000000000000000000000000000000000000000000008152600401610ad991906118e7565b60405180910390fd5b80915050919050565b60006004600083815260200190815260200160002060009054906101000a900473ffffffffffffffffffffffffffffffffffffffff169050919050565b600033905090565b610b3d83838360016111c2565b505050565b600080610b4e84611185565b9050600073ffffffffffffffffffffffffffffffffffffffff168373ffffffffffffffffffffffffffffffffffffffff1614610b9057610b8f818486611387565b5b600073ffffffffffffffffffffffffffffffffffffffff168173ffffffffffffffffffffffffffffffffffffffff1614610c2157610bd26000856000806111c2565b6001600360008373ffffffffffffffffffffffffffffffffffffffff1673ffffffffffffffffffffffffffffffffffffffff168152602001908152602001600020600082825403925050819055505b600073ffffffffffffffffffffffffffffffffffffffff168573ffffffffffffffffffffffffffffffffffffffff1614610ca4576001600360008773ffffffffffffffffffffffffffffffffffffffff1673ffffffffffffffffffffffffffffffffffffffff168152602001908152602001600020600082825401925050819055505b846002600086815260200190815260200160002060006101000a81548173ffffffffffffffffffffffffffffffffffffffff021916908373ffffffffffffffffffffffffffffffffffffffff160217905550838573ffffffffffffffffffffffffffffffffffffffff168273ffffffffffffffffffffffffffffffffffffffff167fddf252ad1be2c89b69c2b068fc378daa952ba7f163c4a11628f55a4df523b3ef60405160405180910390a4809150509392505050565b610d7682826040518060200160405280600081525061144b565b5050565b600073ffffffffffffffffffffffffffffffffffffffff168273ffffffffffffffffffffffffffffffffffffffff1603610deb57816040517f5b08ba18000000000000000000000000000000000000000000000000000000008152600401610de29190611a1c565b60405180910390fd5b80600560008573ffffffffffffffffffffffffffffffffffffffff1673ffffffffffffffffffffffffffffffffffffffff16815260200190815260200160002060008473ffffffffffffffffffffffffffffffffffffffff1673ffffffffffffffffffffffffffffffffffffffff16815260200190815260200160002060006101000a81548160ff0219169083151502179055508173ffffffffffffffffffffffffffffffffffffffff168373ffffffffffffffffffffffffffffffffffffffff167f17307eab39ab6107e8899845ad3d59bd9653f200f220920489ca2b5937696c3183604051610edc9190611828565b60405180910390a3505050565b60008373ffffffffffffffffffffffffffffffffffffffff163b111561109a578273ffffffffffffffffffffffffffffffffffffffff1663150b7a02610f2d610b28565b8685856040518563ffffffff1660e01b8152600401610f4f9493929190611fbd565b6020604051808303816000875af1925050508015610f8b57506040513d601f19601f82011682018060405250810190610f88919061201e565b60015b61100f573d8060008114610fbb576040519150601f19603f3d011682016040523d82523d6000602084013e610fc0565b606091505b50600081510361100757836040517f64a0ae92000000000000000000000000000000000000000000000000000000008152600401610ffe9190611a1c565b60405180910390fd5b805181602001fd5b63150b7a0260e01b7bffffffffffffffffffffffffffffffffffffffffffffffffffffffff1916817bffffffffffffffffffffffffffffffffffffffffffffffffffffffff19161461109857836040517f64a0ae9200000000000000000000000000000000000000000000000000000000815260040161108f9190611a1c565b60405180910390fd5b505b50505050565b606060405180602001604052806000815250905090565b6060600060016110c684611467565b01905060008167ffffffffffffffff8111156110e5576110e4611b40565b5b6040519080825280601f01601f1916602001820160405280156111175781602001600182028036833780820191505090505b509050600082602001820190505b60011561117a578080600190039150507f3031323334353637383961626364656600000000000000000000000000000000600a86061a8153600a858161116e5761116d61204b565b5b04945060008503611125575b819350505050919050565b60006002600083815260200190815260200160002060009054906101000a900473ffffffffffffffffffffffffffffffffffffffff169050919050565b80806111fb5750600073ffffffffffffffffffffffffffffffffffffffff168273ffffffffffffffffffffffffffffffffffffffff1614155b1561132f57600061120b84610a63565b9050600073ffffffffffffffffffffffffffffffffffffffff168373ffffffffffffffffffffffffffffffffffffffff161415801561127657508273ffffffffffffffffffffffffffffffffffffffff168173ffffffffffffffffffffffffffffffffffffffff1614155b801561128957506112878184610965565b155b156112cb57826040517fa9fbf51f0000000000000000000000000000000000000000000000000000000081526004016112c29190611a1c565b60405180910390fd5b811561132d57838573ffffffffffffffffffffffffffffffffffffffff168273ffffffffffffffffffffffffffffffffffffffff167f8c5be1e5ebec7d5bd14f71427d1e84f3dd0314c0f7b2291e5b200ac8c7c3b92560405160405180910390a45b505b836004600085815260200190815260200160002060006101000a81548173ffffffffffffffffffffffffffffffffffffffff021916908373ffffffffffffffffffffffffffffffffffffffff16021790555050505050565b6113928383836115ba565b61144657600073ffffffffffffffffffffffffffffffffffffffff168373ffffffffffffffffffffffffffffffffffffffff160361140757806040517f7e2732890000000000000000000000000000000000000000000000000000000081526004016113fe91906118e7565b60405180910390fd5b81816040517f177e802f00000000000000000000000000000000000000000000000000000000815260040161143d92919061207a565b60405180910390fd5b505050565b611455838361167b565b6114626000848484610ee9565b505050565b600080600090507a184f03e93ff9f4daa797ed6e38ed64bf6a1f01000000000000000083106114c5577a184f03e93ff9f4daa797ed6e38ed64bf6a1f01000000000000000083816114bb576114ba61204b565b5b0492506040810190505b6d04ee2d6d415b85acef81000000008310611502576d04ee2d6d415b85acef810000000083816114f8576114f761204b565b5b0492506020810190505b662386f26fc10000831061153157662386f26fc1000083816115275761152661204b565b5b0492506010810190505b6305f5e100831061155a576305f5e10083816115505761154f61204b565b5b0492506008810190505b612710831061157f5761271083816115755761157461204b565b5b0492506004810190505b606483106115a257606483816115985761159761204b565b5b0492506002810190505b600a83106115b1576001810190505b80915050919050565b60008073ffffffffffffffffffffffffffffffffffffffff168373ffffffffffffffffffffffffffffffffffffffff161415801561167257508273ffffffffffffffffffffffffffffffffffffffff168473ffffffffffffffffffffffffffffffffffffffff16148061163357506116328484610965565b5b8061167157508273ffffffffffffffffffffffffffffffffffffffff1661165983610aeb565b73ffffffffffffffffffffffffffffffffffffffff16145b5b90509392505050565b600073ffffffffffffffffffffffffffffffffffffffff168273ffffffffffffffffffffffffffffffffffffffff16036116ed5760006040517f64a0ae920000000000000000000000000000000000000000000000000000000081526004016116e49190611a1c565b60405180910390fd5b60006116fb83836000610b42565b9050600073ffffffffffffffffffffffffffffffffffffffff168173ffffffffffffffffffffffffffffffffffffffff161461176f5760006040517f73c6ac6e0000000000000000000000000000000000000000000000000000000081526004016117669190611a1c565b60405180910390fd5b505050565b6000604051905090565b600080fd5b600080fd5b60007fffffffff0000000000000000000000000000000000000000000000000000000082169050919050565b6117bd81611788565b81146117c857600080fd5b50565b6000813590506117da816117b4565b92915050565b6000602082840312156117f6576117f561177e565b5b6000611804848285016117cb565b91505092915050565b60008115159050919050565b6118228161180d565b82525050565b600060208201905061183d6000830184611819565b92915050565b600073ffffffffffffffffffffffffffffffffffffffff82169050919050565b600061186e82611843565b9050919050565b61187e81611863565b811461188957600080fd5b50565b60008135905061189b81611875565b92915050565b6000602082840312156118b7576118b661177e565b5b60006118c58482850161188c565b91505092915050565b6000819050919050565b6118e1816118ce565b82525050565b60006020820190506118fc60008301846118d8565b92915050565b600081519050919050565b600082825260208201905092915050565b60005b8381101561193c578082015181840152602081019050611921565b60008484015250505050565b6000601f19601f8301169050919050565b600061196482611902565b61196e818561190d565b935061197e81856020860161191e565b61198781611948565b840191505092915050565b600060208201905081810360008301526119ac8184611959565b905092915050565b6119bd816118ce565b81146119c857600080fd5b50565b6000813590506119da816119b4565b92915050565b6000602082840312156119f6576119f561177e565b5b6000611a04848285016119cb565b91505092915050565b611a1681611863565b82525050565b6000602082019050611a316000830184611a0d565b92915050565b60008060408385031215611a4e57611a4d61177e565b5b6000611a5c8582860161188c565b9250506020611a6d858286016119cb565b9150509250929050565b600080600060608486031215611a9057611a8f61177e565b5b6000611a9e8682870161188c565b9350506020611aaf8682870161188c565b9250506040611ac0868287016119cb565b9150509250925092565b611ad38161180d565b8114611ade57600080fd5b50565b600081359050611af081611aca565b92915050565b60008060408385031215611b0d57611b0c61177e565b5b6000611b1b8582860161188c565b9250506020611b2c85828601611ae1565b9150509250929050565b600080fd5b600080fd5b7f4e487b7100000000000000000000000000000000000000000000000000000000600052604160045260246000fd5b611b7882611948565b810181811067ffffffffffffffff82111715611b9757611b96611b40565b5b80604052505050565b6000611baa611774565b9050611bb68282611b6f565b919050565b600067ffffffffffffffff821115611bd657611bd5611b40565b5b611bdf82611948565b9050602081019050919050565b82818337600083830152505050565b6000611c0e611c0984611bbb565b611ba0565b905082815260208101848484011115611c2a57611c29611b3b565b5b611c35848285611bec565b509392505050565b600082601f830112611c5257611c51611b36565b5b8135611c62848260208601611bfb565b91505092915050565b60008060008060808587031215611c8557611c8461177e565b5b6000611c938782880161188c565b9450506020611ca48782880161188c565b9350506040611cb5878288016119cb565b925050606085013567ffffffffffffffff811115611cd657611cd5611783565b5b611ce287828801611c3d565b91505092959194509250565b600081519050919050565b600082825260208201905092915050565b6000819050602082019050919050565b611d23816118ce565b82525050565b6000611d358383611d1a565b60208301905092915050565b6000602082019050919050565b6000611d5982611cee565b611d638185611cf9565b9350611d6e83611d0a565b8060005b83811015611d9f578151611d868882611d29565b9750611d9183611d41565b925050600181019050611d72565b5085935050505092915050565b60006020820190508181036000830152611dc68184611d4e565b905092915050565b60008060408385031215611de557611de461177e565b5b6000611df38582860161188c565b9250506020611e048582860161188c565b9150509250929050565b7f4e487b7100000000000000000000000000000000000000000000000000000000600052602260045260246000fd5b60006002820490506001821680611e5557607f821691505b602082108103611e6857611e67611e0e565b5b50919050565b6000606082019050611e836000830186611a0d565b611e9060208301856118d8565b611e9d6040830184611a0d565b949350505050565b7f4e487b7100000000000000000000000000000000000000000000000000000000600052601160045260246000fd5b6000611edf826118ce565b9150611eea836118ce565b9250828201905080821115611f0257611f01611ea5565b5b92915050565b600081905092915050565b6000611f1e82611902565b611f288185611f08565b9350611f3881856020860161191e565b80840191505092915050565b6000611f508285611f13565b9150611f5c8284611f13565b91508190509392505050565b600081519050919050565b600082825260208201905092915050565b6000611f8f82611f68565b611f998185611f73565b9350611fa981856020860161191e565b611fb281611948565b840191505092915050565b6000608082019050611fd26000830187611a0d565b611fdf6020830186611a0d565b611fec60408301856118d8565b8181036060830152611ffe8184611f84565b905095945050505050565b600081519050612018816117b4565b92915050565b6000602082840312156120345761203361177e565b5b600061204284828501612009565b91505092915050565b7f4e487b7100000000000000000000000000000000000000000000000000000000600052601260045260246000fd5b600060408201905061208f6000830185611a0d565b61209c60208301846118d8565b939250505056fea264697066735822122027b111fa490204023aeb4a8e8581b8d19a9e8d7b16c0e5c8f8907b88a0398f0664736f6c63430008180033",
  "linkReferences": {},
  "deployedLinkReferences": {}
}