{
  "_format": "hh-sol-artifact-1",
  "contractName": "TokenA",
  "sourceName": "contracts/TokenA.sol",
  "abi": [
    {
      "inputs": [],
      "stateMutability": "nonpayable",
      "type": "constructor"
    },
    {
      "inputs": [
        {
          "internalType": "address",
          "name": "spender",
          "type": "address"
        },
        {
          "internalType": "uint256",
          "name": "allowance",
          "type": "uint256"
        },
        {
          "internalType": "uint256",
          "name": "needed",
          "type": "uint256"
        }
      ],
      "name": "ERC20InsufficientAllowance",
      "type": "error"
    },
    {
      "inputs": [
        {
          "internalType": "address",
          "name": "sender",
          "type": "address"
        },
        {
          "internalType": "uint256",
          "name": "balance",
          "type": "uint256"
        },
        {
          "internalType": "uint256",
          "name": "needed",
          "type": "uint256"
        }
      ],
      "name": "ERC20InsufficientBalance",
      "type": "error"
    },
    {
      "inputs": [
        {
          "internalType": "address",
          "name": "approver",
          "type": "address"
        }
      ],
      "name": "ERC20InvalidApprover",
      "type": "error"
    },
    {
      "inputs": [
        {
          "internalType": "address",
          "name": "receiver",
          "type": "address"
        }
      ],
      "name": "ERC20InvalidReceiver",
      "type": "error"
    },
    {
      "inputs": [
        {
          "internalType": "address",
          "name": "sender",
          "type": "address"
        }
      ],
      "name": "ERC20InvalidSender",
      "type": "error"
    },
    {
      "inputs": [
        {
          "internalType": "address",
          "name": "spender",
          "type": "address"
        }
      ],
      "name": "ERC20InvalidSpender",
      "type": "error"
    },
    {
      "anonymous": false,
      "inputs": [
        {
          "indexed": true,
          "internalType": "address",
          "name": "owner",
          "type": "address"
        },
        {
          "indexed": true,
          "internalType": "address",
          "name": "spender",
          "type": "address"
        },
        {
          "indexed": false,
          "internalType": "uint256",
          "name": "value",
          "type": "uint256"
        }
      ],
      "name": "Approval",
      "type": "event"
    },
    {
      "anonymous": false,
      "inputs": [
        {
          "indexed": true,
          "internalType": "address",
          "name": "from",
          "type": "address"
        },
        {
          "indexed": true,
          "internalType": "address",
          "name": "to",
          "type": "address"
        },
        {
          "indexed": false,
          "internalType": "uint256",
          "name": "value",
          "type": "uint256"
        }
      ],
      "name": "Transfer",
      "type": "event"
    },
    {
      "inputs": [
        {
          "internalType": "address",
          "name": "owner",
          "type": "address"
        },
        {
          "internalType": "address",
          "name": "spender",
          "type": "address"
        }
      ],
      "name": "allowance",
      "outputs": [
        {
          "internalType": "uint256",
          "name": "",
          "type": "uint256"
        }
      ],
      "stateMutability": "view",
      "type": "function"
    },
    {
      "inputs": [
        {
          "internalType": "address",
          "name": "spender",
          "type": "address"
        },
        {
          "internalType": "uint256",
          "name": "value",
          "type": "uint256"
        }
      ],
      "name": "approve",
      "outputs": [
        {
          "internalType": "bool",
          "name": "",
          "type": "bool"
        }
      ],
      "stateMutability": "nonpayable",
      "type": "function"
    },
    {
      "inputs": [
        {
          "internalType": "address",
          "name": "account",
          "type": "address"
        }
      ],
      "name": "balanceOf",
      "outputs": [
        {
          "internalType": "uint256",
          "name": "",
          "type": "uint256"
        }
      ],
      "stateMutability": "view",
      "type": "function"
    },
    {
      "inputs": [],
      "name": "cap",
      "outputs": [
        {
          "internalType": "uint256",
          "name": "",
          "type": "uint256"
        }
      ],
      "stateMutability": "view",
      "type": "function"
    },
    {
      "inputs": [],
      "name": "decimals",
      "outputs": [
        {
          "internalType": "uint8",
          "name": "",
          "type": "uint8"
        }
      ],
      "stateMutability": "view",
      "type": "function"
    },
    {
      "inputs": [
        {
          "internalType": "uint256",
          "name": "_amount",
          "type": "uint256"
        }
      ],
      "name": "mint",
      "outputs": [],
      "stateMutability": "nonpayable",
      "type": "function"
    },
    {
      "inputs": [],
      "name": "name",
      "outputs": [
        {
          "internalType": "string",
          "name": "",
          "type": "string"
        }
      ],
      "stateMutability": "view",
      "type": "function"
    },
    {
      "inputs": [],
      "name": "symbol",
      "outputs": [
        {
          "internalType": "string",
          "name": "",
          "type": "string"
        }
      ],
      "stateMutability": "view",
      "type": "function"
    },
    {
      "inputs": [],
      "name": "totalSupply",
      "outputs": [
        {
          "internalType": "uint256",
          "name": "",
          "type": "uint256"
        }
      ],
      "stateMutability": "view",
      "type": "function"
    },
    {
      "inputs": [
        {
          "internalType": "address",
          "name": "to",
          "type": "address"
        },
        {
          "internalType": "uint256",
          "name": "value",
          "type": "uint256"
        }
      ],
      "name": "transfer",
      "outputs": [
        {
          "internalType": "bool",
          "name": "",
          "type": "bool"
        }
      ],
      "stateMutability": "nonpayable",
      "type": "function"
    },
    {
      "inputs": [
        {
          "internalType": "address",
          "name": "from",
          "type": "address"
        },
        {
          "internalType": "address",
          "name": "to",
          "type": "address"
        },
        {
          "internalType": "uint256",
          "name": "value",
          "type": "uint256"
        }
      ],
      "name": "transferFrom",
      "outputs": [
        {
          "internalType": "bool",
          "name": "",
          "type": "bool"
        }
      ],
      "stateMutability": "nonpayable",
      "type": "function"
    }
  ],
  "bytecode": "0x60806040526012600a6200001491906200052d565b640ba43b74006200002691906200057e565b6005553480156200003657600080fd5b506040518060400160405280600681526020017f546f6b656e4100000000000000000000000000000000000000000000000000008152506040518060400160405280600381526020017f544b4100000000000000000000000000000000000000000000000000000000008152508160039081620000b4919062000839565b508060049081620000c6919062000839565b505050620000dd33600554620000e360201b60201c565b62000a28565b600073ffffffffffffffffffffffffffffffffffffffff168273ffffffffffffffffffffffffffffffffffffffff1603620001585760006040517fec442f050000000000000000000000000000000000000000000000000000000081526004016200014f919062000965565b60405180910390fd5b6200016c600083836200017060201b60201c565b5050565b600073ffffffffffffffffffffffffffffffffffffffff168373ffffffffffffffffffffffffffffffffffffffff1603620001c6578060026000828254620001b9919062000982565b925050819055506200029c565b60008060008573ffffffffffffffffffffffffffffffffffffffff1673ffffffffffffffffffffffffffffffffffffffff1681526020019081526020016000205490508181101562000255578381836040517fe450d38c0000000000000000000000000000000000000000000000000000000081526004016200024c93929190620009ce565b60405180910390fd5b8181036000808673ffffffffffffffffffffffffffffffffffffffff1673ffffffffffffffffffffffffffffffffffffffff16815260200190815260200160002081905550505b600073ffffffffffffffffffffffffffffffffffffffff168273ffffffffffffffffffffffffffffffffffffffff1603620002e7578060026000828254039250508190555062000334565b806000808473ffffffffffffffffffffffffffffffffffffffff1673ffffffffffffffffffffffffffffffffffffffff168152602001908152602001600020600082825401925050819055505b8173ffffffffffffffffffffffffffffffffffffffff168373ffffffffffffffffffffffffffffffffffffffff167fddf252ad1be2c89b69c2b068fc378daa952ba7f163c4a11628f55a4df523b3ef8360405162000393919062000a0b565b60405180910390a3505050565b7f4e487b7100000000000000000000000000000000000000000000000000000000600052601160045260246000fd5b60008160011c9050919050565b6000808291508390505b60018511156200042e57808604811115620004065762000405620003a0565b5b6001851615620004165780820291505b80810290506200042685620003cf565b9450620003e6565b94509492505050565b6000826200044957600190506200051c565b816200045957600090506200051c565b81600181146200047257600281146200047d57620004b3565b60019150506200051c565b60ff841115620004925762000491620003a0565b5b8360020a915084821115620004ac57620004ab620003a0565b5b506200051c565b5060208310610133831016604e8410600b8410161715620004ed5782820a905083811115620004e757620004e6620003a0565b5b6200051c565b620004fc8484846001620003dc565b92509050818404811115620005165762000515620003a0565b5b81810290505b9392505050565b6000819050919050565b60006200053a8262000523565b9150620005478362000523565b9250620005767fffffffffffffffffffffffffffffffffffffffffffffffffffffffffffffffff848462000437565b905092915050565b60006200058b8262000523565b9150620005988362000523565b9250828202620005a88162000523565b91508282048414831517620005c257620005c1620003a0565b5b5092915050565b600081519050919050565b7f4e487b7100000000000000000000000000000000000000000000000000000000600052604160045260246000fd5b7f4e487b7100000000000000000000000000000000000000000000000000000000600052602260045260246000fd5b600060028204905060018216806200064b57607f821691505b60208210810362000661576200066062000603565b5b50919050565b60008190508160005260206000209050919050565b60006020601f8301049050919050565b600082821b905092915050565b600060088302620006cb7fffffffffffffffffffffffffffffffffffffffffffffffffffffffffffffffff826200068c565b620006d786836200068c565b95508019841693508086168417925050509392505050565b6000819050919050565b60006200071a620007146200070e8462000523565b620006ef565b62000523565b9050919050565b6000819050919050565b6200073683620006f9565b6200074e620007458262000721565b84845462000699565b825550505050565b600090565b6200076562000756565b620007728184846200072b565b505050565b5b818110156200079a576200078e6000826200075b565b60018101905062000778565b5050565b601f821115620007e957620007b38162000667565b620007be846200067c565b81016020851015620007ce578190505b620007e6620007dd856200067c565b83018262000777565b50505b505050565b600082821c905092915050565b60006200080e60001984600802620007ee565b1980831691505092915050565b6000620008298383620007fb565b9150826002028217905092915050565b6200084482620005c9565b67ffffffffffffffff81111562000860576200085f620005d4565b5b6200086c825462000632565b620008798282856200079e565b600060209050601f831160018114620008b157600084156200089c578287015190505b620008a885826200081b565b86555062000918565b601f198416620008c18662000667565b60005b82811015620008eb57848901518255600182019150602085019450602081019050620008c4565b868310156200090b578489015162000907601f891682620007fb565b8355505b6001600288020188555050505b505050505050565b600073ffffffffffffffffffffffffffffffffffffffff82169050919050565b60006200094d8262000920565b9050919050565b6200095f8162000940565b82525050565b60006020820190506200097c600083018462000954565b92915050565b60006200098f8262000523565b91506200099c8362000523565b9250828201905080821115620009b757620009b6620003a0565b5b92915050565b620009c88162000523565b82525050565b6000606082019050620009e5600083018662000954565b620009f46020830185620009bd565b62000a036040830184620009bd565b949350505050565b600060208201905062000a226000830184620009bd565b92915050565b610f678062000a386000396000f3fe608060405234801561001057600080fd5b50600436106100a95760003560e01c8063355274ea11610071578063355274ea1461016857806370a082311461018657806395d89b41146101b6578063a0712d68146101d4578063a9059cbb146101f0578063dd62ed3e14610220576100a9565b806306fdde03146100ae578063095ea7b3146100cc57806318160ddd146100fc57806323b872dd1461011a578063313ce5671461014a575b600080fd5b6100b6610250565b6040516100c39190610b8e565b60405180910390f35b6100e660048036038101906100e19190610c49565b6102e2565b6040516100f39190610ca4565b60405180910390f35b610104610305565b6040516101119190610cce565b60405180910390f35b610134600480360381019061012f9190610ce9565b61030f565b6040516101419190610ca4565b60405180910390f35b61015261033e565b60405161015f9190610d58565b60405180910390f35b610170610347565b60405161017d9190610cce565b60405180910390f35b6101a0600480360381019061019b9190610d73565b61034d565b6040516101ad9190610cce565b60405180910390f35b6101be610395565b6040516101cb9190610b8e565b60405180910390f35b6101ee60048036038101906101e99190610da0565b610427565b005b61020a60048036038101906102059190610c49565b610434565b6040516102179190610ca4565b60405180910390f35b61023a60048036038101906102359190610dcd565b610457565b6040516102479190610cce565b60405180910390f35b60606003805461025f90610e3c565b80601f016020809104026020016040519081016040528092919081815260200182805461028b90610e3c565b80156102d85780601f106102ad576101008083540402835291602001916102d8565b820191906000526020600020905b8154815290600101906020018083116102bb57829003601f168201915b5050505050905090565b6000806102ed6104de565b90506102fa8185856104e6565b600191505092915050565b6000600254905090565b60008061031a6104de565b90506103278582856104f8565b61033285858561058c565b60019150509392505050565b60006012905090565b60055481565b60008060008373ffffffffffffffffffffffffffffffffffffffff1673ffffffffffffffffffffffffffffffffffffffff168152602001908152602001600020549050919050565b6060600480546103a490610e3c565b80601f01602080910402602001604051908101604052809291908181526020018280546103d090610e3c565b801561041d5780601f106103f25761010080835404028352916020019161041d565b820191906000526020600020905b81548152906001019060200180831161040057829003601f168201915b5050505050905090565b6104313382610680565b50565b60008061043f6104de565b905061044c81858561058c565b600191505092915050565b6000600160008473ffffffffffffffffffffffffffffffffffffffff1673ffffffffffffffffffffffffffffffffffffffff16815260200190815260200160002060008373ffffffffffffffffffffffffffffffffffffffff1673ffffffffffffffffffffffffffffffffffffffff16815260200190815260200160002054905092915050565b600033905090565b6104f38383836001610702565b505050565b60006105048484610457565b90507fffffffffffffffffffffffffffffffffffffffffffffffffffffffffffffffff81146105865781811015610576578281836040517ffb8f41b200000000000000000000000000000000000000000000000000000000815260040161056d93929190610e7c565b60405180910390fd5b61058584848484036000610702565b5b50505050565b600073ffffffffffffffffffffffffffffffffffffffff168373ffffffffffffffffffffffffffffffffffffffff16036105fe5760006040517f96c6fd1e0000000000000000000000000000000000000000000000000000000081526004016105f59190610eb3565b60405180910390fd5b600073ffffffffffffffffffffffffffffffffffffffff168273ffffffffffffffffffffffffffffffffffffffff16036106705760006040517fec442f050000000000000000000000000000000000000000000000000000000081526004016106679190610eb3565b60405180910390fd5b61067b8383836108d9565b505050565b600073ffffffffffffffffffffffffffffffffffffffff168273ffffffffffffffffffffffffffffffffffffffff16036106f25760006040517fec442f050000000000000000000000000000000000000000000000000000000081526004016106e99190610eb3565b60405180910390fd5b6106fe600083836108d9565b5050565b600073ffffffffffffffffffffffffffffffffffffffff168473ffffffffffffffffffffffffffffffffffffffff16036107745760006040517fe602df0500000000000000000000000000000000000000000000000000000000815260040161076b9190610eb3565b60405180910390fd5b600073ffffffffffffffffffffffffffffffffffffffff168373ffffffffffffffffffffffffffffffffffffffff16036107e65760006040517f94280d620000000000000000000000000000000000000000000000000000000081526004016107dd9190610eb3565b60405180910390fd5b81600160008673ffffffffffffffffffffffffffffffffffffffff1673ffffffffffffffffffffffffffffffffffffffff16815260200190815260200160002060008573ffffffffffffffffffffffffffffffffffffffff1673ffffffffffffffffffffffffffffffffffffffff1681526020019081526020016000208190555080156108d3578273ffffffffffffffffffffffffffffffffffffffff168473ffffffffffffffffffffffffffffffffffffffff167f8c5be1e5ebec7d5bd14f71427d1e84f3dd0314c0f7b2291e5b200ac8c7c3b925846040516108ca9190610cce565b60405180910390a35b50505050565b600073ffffffffffffffffffffffffffffffffffffffff168373ffffffffffffffffffffffffffffffffffffffff160361092b57806002600082825461091f9190610efd565b925050819055506109fe565b60008060008573ffffffffffffffffffffffffffffffffffffffff1673ffffffffffffffffffffffffffffffffffffffff168152602001908152602001600020549050818110156109b7578381836040517fe450d38c0000000000000000000000000000000000000000000000000000000081526004016109ae93929190610e7c565b60405180910390fd5b8181036000808673ffffffffffffffffffffffffffffffffffffffff1673ffffffffffffffffffffffffffffffffffffffff16815260200190815260200160002081905550505b600073ffffffffffffffffffffffffffffffffffffffff168273ffffffffffffffffffffffffffffffffffffffff1603610a475780600260008282540392505081905550610a94565b806000808473ffffffffffffffffffffffffffffffffffffffff1673ffffffffffffffffffffffffffffffffffffffff168152602001908152602001600020600082825401925050819055505b8173ffffffffffffffffffffffffffffffffffffffff168373ffffffffffffffffffffffffffffffffffffffff167fddf252ad1be2c89b69c2b068fc378daa952ba7f163c4a11628f55a4df523b3ef83604051610af19190610cce565b60405180910390a3505050565b600081519050919050565b600082825260208201905092915050565b60005b83811015610b38578082015181840152602081019050610b1d565b60008484015250505050565b6000601f19601f8301169050919050565b6000610b6082610afe565b610b6a8185610b09565b9350610b7a818560208601610b1a565b610b8381610b44565b840191505092915050565b60006020820190508181036000830152610ba88184610b55565b905092915050565b600080fd5b600073ffffffffffffffffffffffffffffffffffffffff82169050919050565b6000610be082610bb5565b9050919050565b610bf081610bd5565b8114610bfb57600080fd5b50565b600081359050610c0d81610be7565b92915050565b6000819050919050565b610c2681610c13565b8114610c3157600080fd5b50565b600081359050610c4381610c1d565b92915050565b60008060408385031215610c6057610c5f610bb0565b5b6000610c6e85828601610bfe565b9250506020610c7f85828601610c34565b9150509250929050565b60008115159050919050565b610c9e81610c89565b82525050565b6000602082019050610cb96000830184610c95565b92915050565b610cc881610c13565b82525050565b6000602082019050610ce36000830184610cbf565b92915050565b600080600060608486031215610d0257610d01610bb0565b5b6000610d1086828701610bfe565b9350506020610d2186828701610bfe565b9250506040610d3286828701610c34565b9150509250925092565b600060ff82169050919050565b610d5281610d3c565b82525050565b6000602082019050610d6d6000830184610d49565b92915050565b600060208284031215610d8957610d88610bb0565b5b6000610d9784828501610bfe565b91505092915050565b600060208284031215610db657610db5610bb0565b5b6000610dc484828501610c34565b91505092915050565b60008060408385031215610de457610de3610bb0565b5b6000610df285828601610bfe565b9250506020610e0385828601610bfe565b9150509250929050565b7f4e487b7100000000000000000000000000000000000000000000000000000000600052602260045260246000fd5b60006002820490506001821680610e5457607f821691505b602082108103610e6757610e66610e0d565b5b50919050565b610e7681610bd5565b82525050565b6000606082019050610e916000830186610e6d565b610e9e6020830185610cbf565b610eab6040830184610cbf565b949350505050565b6000602082019050610ec86000830184610e6d565b92915050565b7f4e487b7100000000000000000000000000000000000000000000000000000000600052601160045260246000fd5b6000610f0882610c13565b9150610f1383610c13565b9250828201905080821115610f2b57610f2a610ece565b5b9291505056fea2646970667358221220bfbf9e6e0903701d908383252152f0a2af0b0d7b9d64b802e3fbba368f687ce364736f6c63430008180033",
  "linkReferences": {},
  "deployedLinkReferences": {}
}