{
  "_format": "hh-sol-artifact-1",
  "contractName": "Logic",
  "sourceName": "contracts/Logic.sol",
  "abi": [
    {
      "inputs": [
        {
          "internalType": "contract TokenA",
          "name": "_tokenA",
          "type": "address"
        },
        {
          "internalType": "contract NFTB",
          "name": "_nftB",
          "type": "address"
        }
      ],
      "stateMutability": "nonpayable",
      "type": "constructor"
    },
    {
      "inputs": [
        {
          "internalType": "address",
          "name": "owner",
          "type": "address"
        }
      ],
      "name": "OwnableInvalidOwner",
      "type": "error"
    },
    {
      "inputs": [
        {
          "internalType": "address",
          "name": "account",
          "type": "address"
        }
      ],
      "name": "OwnableUnauthorizedAccount",
      "type": "error"
    },
    {
      "anonymous": false,
      "inputs": [
        {
          "indexed": true,
          "internalType": "address",
          "name": "user",
          "type": "address"
        },
        {
          "indexed": false,
          "internalType": "uint256",
          "name": "amount",
          "type": "uint256"
        },
        {
          "indexed": false,
          "internalType": "uint256",
          "name": "timestamp",
          "type": "uint256"
        }
      ],
      "name": "ClaimReward",
      "type": "event"
    },
    {
      "anonymous": false,
      "inputs": [
        {
          "indexed": true,
          "internalType": "address",
          "name": "user",
          "type": "address"
        },
        {
          "indexed": false,
          "internalType": "uint256",
          "name": "tokenId",
          "type": "uint256"
        },
        {
          "indexed": false,
          "internalType": "uint256",
          "name": "timestamp",
          "type": "uint256"
        }
      ],
      "name": "DepositNFTB",
      "type": "event"
    },
    {
      "anonymous": false,
      "inputs": [
        {
          "indexed": true,
          "internalType": "address",
          "name": "user",
          "type": "address"
        },
        {
          "indexed": false,
          "internalType": "uint256",
          "name": "amount",
          "type": "uint256"
        },
        {
          "indexed": false,
          "internalType": "uint256",
          "name": "timestamp",
          "type": "uint256"
        }
      ],
      "name": "DepositTokenA",
      "type": "event"
    },
    {
      "anonymous": false,
      "inputs": [
        {
          "indexed": true,
          "internalType": "address",
          "name": "previousOwner",
          "type": "address"
        },
        {
          "indexed": true,
          "internalType": "address",
          "name": "newOwner",
          "type": "address"
        }
      ],
      "name": "OwnershipTransferred",
      "type": "event"
    },
    {
      "anonymous": false,
      "inputs": [
        {
          "indexed": true,
          "internalType": "address",
          "name": "user",
          "type": "address"
        },
        {
          "indexed": false,
          "internalType": "uint256",
          "name": "tokenId",
          "type": "uint256"
        },
        {
          "indexed": false,
          "internalType": "uint256",
          "name": "timestamp",
          "type": "uint256"
        }
      ],
      "name": "WithdrawNFTB",
      "type": "event"
    },
    {
      "anonymous": false,
      "inputs": [
        {
          "indexed": true,
          "internalType": "address",
          "name": "user",
          "type": "address"
        },
        {
          "indexed": false,
          "internalType": "uint256",
          "name": "amount",
          "type": "uint256"
        },
        {
          "indexed": false,
          "internalType": "uint256",
          "name": "timestamp",
          "type": "uint256"
        }
      ],
      "name": "WithdrawTokenA",
      "type": "event"
    },
    {
      "inputs": [],
      "name": "BASE_APR",
      "outputs": [
        {
          "internalType": "uint8",
          "name": "",
          "type": "uint8"
        }
      ],
      "stateMutability": "view",
      "type": "function"
    },
    {
      "inputs": [],
      "name": "BASE_APR_INCREMENT",
      "outputs": [
        {
          "internalType": "uint8",
          "name": "",
          "type": "uint8"
        }
      ],
      "stateMutability": "view",
      "type": "function"
    },
    {
      "inputs": [],
      "name": "LOCK_TIME",
      "outputs": [
        {
          "internalType": "uint32",
          "name": "",
          "type": "uint32"
        }
      ],
      "stateMutability": "view",
      "type": "function"
    },
    {
      "inputs": [],
      "name": "THRESHOLD",
      "outputs": [
        {
          "internalType": "uint256",
          "name": "",
          "type": "uint256"
        }
      ],
      "stateMutability": "view",
      "type": "function"
    },
    {
      "inputs": [],
      "name": "claimReward",
      "outputs": [],
      "stateMutability": "nonpayable",
      "type": "function"
    },
    {
      "inputs": [
        {
          "internalType": "uint256",
          "name": "_tokenId",
          "type": "uint256"
        }
      ],
      "name": "depositNFTB",
      "outputs": [],
      "stateMutability": "nonpayable",
      "type": "function"
    },
    {
      "inputs": [
        {
          "internalType": "uint256",
          "name": "_amount",
          "type": "uint256"
        }
      ],
      "name": "depositTokenA",
      "outputs": [],
      "stateMutability": "nonpayable",
      "type": "function"
    },
    {
      "inputs": [
        {
          "internalType": "uint256",
          "name": "",
          "type": "uint256"
        }
      ],
      "name": "depositors",
      "outputs": [
        {
          "internalType": "address",
          "name": "",
          "type": "address"
        }
      ],
      "stateMutability": "view",
      "type": "function"
    },
    {
      "inputs": [
        {
          "internalType": "address",
          "name": "",
          "type": "address"
        }
      ],
      "name": "deposits",
      "outputs": [
        {
          "internalType": "uint256",
          "name": "amountTokenA",
          "type": "uint256"
        },
        {
          "internalType": "uint256",
          "name": "nftCount",
          "type": "uint256"
        },
        {
          "internalType": "uint256",
          "name": "timestamp",
          "type": "uint256"
        },
        {
          "internalType": "uint256",
          "name": "timestampDepositTokenA",
          "type": "uint256"
        },
        {
          "internalType": "uint256",
          "name": "interest",
          "type": "uint256"
        },
        {
          "internalType": "uint8",
          "name": "apr",
          "type": "uint8"
        }
      ],
      "stateMutability": "view",
      "type": "function"
    },
    {
      "inputs": [],
      "name": "getAPR",
      "outputs": [
        {
          "internalType": "uint256",
          "name": "",
          "type": "uint256"
        }
      ],
      "stateMutability": "view",
      "type": "function"
    },
    {
      "inputs": [
        {
          "internalType": "address",
          "name": "_user",
          "type": "address"
        }
      ],
      "name": "getDepositInfo",
      "outputs": [
        {
          "internalType": "uint256",
          "name": "amountTokenA",
          "type": "uint256"
        },
        {
          "internalType": "uint256",
          "name": "nftCount",
          "type": "uint256"
        },
        {
          "internalType": "uint256",
          "name": "timestamp",
          "type": "uint256"
        },
        {
          "internalType": "uint256",
          "name": "interest",
          "type": "uint256"
        },
        {
          "internalType": "uint8",
          "name": "apr",
          "type": "uint8"
        }
      ],
      "stateMutability": "view",
      "type": "function"
    },
    {
      "inputs": [
        {
          "internalType": "address",
          "name": "account",
          "type": "address"
        }
      ],
      "name": "getNFTDepositeds",
      "outputs": [
        {
          "internalType": "uint256[]",
          "name": "",
          "type": "uint256[]"
        }
      ],
      "stateMutability": "view",
      "type": "function"
    },
    {
      "inputs": [],
      "name": "nftB",
      "outputs": [
        {
          "internalType": "contract NFTB",
          "name": "",
          "type": "address"
        }
      ],
      "stateMutability": "view",
      "type": "function"
    },
    {
      "inputs": [],
      "name": "owner",
      "outputs": [
        {
          "internalType": "address",
          "name": "",
          "type": "address"
        }
      ],
      "stateMutability": "view",
      "type": "function"
    },
    {
      "inputs": [],
      "name": "renounceOwnership",
      "outputs": [],
      "stateMutability": "nonpayable",
      "type": "function"
    },
    {
      "inputs": [
        {
          "internalType": "uint8",
          "name": "APR",
          "type": "uint8"
        }
      ],
      "name": "setAPR",
      "outputs": [],
      "stateMutability": "nonpayable",
      "type": "function"
    },
    {
      "inputs": [],
      "name": "tokenA",
      "outputs": [
        {
          "internalType": "contract TokenA",
          "name": "",
          "type": "address"
        }
      ],
      "stateMutability": "view",
      "type": "function"
    },
    {
      "inputs": [
        {
          "internalType": "address",
          "name": "newOwner",
          "type": "address"
        }
      ],
      "name": "transferOwnership",
      "outputs": [],
      "stateMutability": "nonpayable",
      "type": "function"
    },
    {
      "inputs": [
        {
          "internalType": "address",
          "name": "_user",
          "type": "address"
        }
      ],
      "name": "updateInterest",
      "outputs": [],
      "stateMutability": "nonpayable",
      "type": "function"
    },
    {
      "inputs": [
        {
          "internalType": "uint256",
          "name": "_tokenId",
          "type": "uint256"
        }
      ],
      "name": "withdrawNFTB",
      "outputs": [],
      "stateMutability": "nonpayable",
      "type": "function"
    },
    {
      "inputs": [
        {
          "internalType": "uint256",
          "name": "_amount",
          "type": "uint256"
        }
      ],
      "name": "withdrawTokenA",
      "outputs": [],
      "stateMutability": "nonpayable",
      "type": "function"
    }
  ],
  "bytecode": "0x60806040526008600260146101000a81548160ff021916908360ff16021790555060028060156101000a81548160ff021916908360ff160217905550601e600260166101000a81548163ffffffff021916908363ffffffff16021790555069d3c21bcecceda10000006003553480156200007857600080fd5b5060405162002efd38038062002efd83398181016040528101906200009e919062000337565b33600073ffffffffffffffffffffffffffffffffffffffff168173ffffffffffffffffffffffffffffffffffffffff1603620001145760006040517f1e4fbdf70000000000000000000000000000000000000000000000000000000081526004016200010b91906200038f565b60405180910390fd5b6200012581620001b060201b60201c565b5081600160006101000a81548173ffffffffffffffffffffffffffffffffffffffff021916908373ffffffffffffffffffffffffffffffffffffffff16021790555080600260006101000a81548173ffffffffffffffffffffffffffffffffffffffff021916908373ffffffffffffffffffffffffffffffffffffffff1602179055505050620003ac565b60008060009054906101000a900473ffffffffffffffffffffffffffffffffffffffff169050816000806101000a81548173ffffffffffffffffffffffffffffffffffffffff021916908373ffffffffffffffffffffffffffffffffffffffff1602179055508173ffffffffffffffffffffffffffffffffffffffff168173ffffffffffffffffffffffffffffffffffffffff167f8be0079c531659141344cd1fd0a4f28419497f9722a3daafe3b4186f6b6457e060405160405180910390a35050565b600080fd5b600073ffffffffffffffffffffffffffffffffffffffff82169050919050565b6000620002a68262000279565b9050919050565b6000620002ba8262000299565b9050919050565b620002cc81620002ad565b8114620002d857600080fd5b50565b600081519050620002ec81620002c1565b92915050565b6000620002ff8262000299565b9050919050565b6200031181620002f2565b81146200031d57600080fd5b50565b600081519050620003318162000306565b92915050565b6000806040838503121562000351576200035062000274565b5b60006200036185828601620002db565b9250506020620003748582860162000320565b9150509250929050565b620003898162000299565b82525050565b6000602082019050620003a660008301846200037e565b92915050565b612b4180620003bc6000396000f3fe608060405234801561001057600080fd5b50600436106101375760003560e01c8063b88a802f116100b8578063e4c93be71161007c578063e4c93be71461030a578063e4fd18c914610326578063f2fde38b14610344578063f453a8f414610360578063fc06571b1461037c578063fc7e286d1461039857610137565b8063b88a802f14610266578063bd8d99f414610270578063c89d5b8b1461028c578063ca04220a146102aa578063e4b2fb79146102da57610137565b8063785ffb37116100ff578063785ffb37146101d45780637b3c5da7146101f25780638da5cb5b1461020e5780639e30b1e81461022c578063b4ea60fc1461024857610137565b80630fc63d101461013c57806332e2cea81461015a578063413d9c3a146101785780635287ce1214610196578063715018a6146101ca575b600080fd5b6101446103cd565b6040516101519190611f4e565b60405180910390f35b6101626103f3565b60405161016f9190611f8a565b60405180910390f35b610180610419565b60405161018d9190611fc4565b60405180910390f35b6101b060048036038101906101ab9190612022565b61042f565b6040516101c1959493929190612084565b60405180910390f35b6101d26104b3565b005b6101dc6104c7565b6040516101e991906120d7565b60405180910390f35b61020c60048036038101906102079190612022565b6104cd565b005b610216610682565b6040516102239190612101565b60405180910390f35b61024660048036038101906102419190612148565b6106ab565b005b610250610c6d565b60405161025d9190612175565b60405180910390f35b61026e610c80565b005b61028a600480360381019061028591906121bc565b610e7f565b005b610294610ead565b6040516102a191906120d7565b60405180910390f35b6102c460048036038101906102bf9190612022565b610ec7565b6040516102d191906122a7565b60405180910390f35b6102f460048036038101906102ef9190612148565b610f5e565b6040516103019190612101565b60405180910390f35b610324600480360381019061031f9190612148565b610f9d565b005b61032e611263565b60405161033b9190612175565b60405180910390f35b61035e60048036038101906103599190612022565b611276565b005b61037a60048036038101906103759190612148565b6112fc565b005b61039660048036038101906103919190612148565b611711565b005b6103b260048036038101906103ad9190612022565b611bf8565b6040516103c4969594939291906122c9565b60405180910390f35b600160009054906101000a900473ffffffffffffffffffffffffffffffffffffffff1681565b600260009054906101000a900473ffffffffffffffffffffffffffffffffffffffff1681565b600260169054906101000a900463ffffffff1681565b600080600080600080600460008873ffffffffffffffffffffffffffffffffffffffff1673ffffffffffffffffffffffffffffffffffffffff168152602001908152602001600020905080600001548160010154826002015483600401548460050160009054906101000a900460ff16955095509550955095505091939590929450565b6104bb611c41565b6104c56000611cc8565b565b60035481565b6000600460008373ffffffffffffffffffffffffffffffffffffffff1673ffffffffffffffffffffffffffffffffffffffff168152602001908152602001600020600201544261051d9190612359565b9050600063bbf81e0082600460008673ffffffffffffffffffffffffffffffffffffffff1673ffffffffffffffffffffffffffffffffffffffff16815260200190815260200160002060050160009054906101000a900460ff1660ff16600460008773ffffffffffffffffffffffffffffffffffffffff1673ffffffffffffffffffffffffffffffffffffffff168152602001908152602001600020600001546105c7919061238d565b6105d1919061238d565b6105db91906123fe565b905080600460008573ffffffffffffffffffffffffffffffffffffffff1673ffffffffffffffffffffffffffffffffffffffff168152602001908152602001600020600401600082825461062f919061242f565b9250508190555042600460008573ffffffffffffffffffffffffffffffffffffffff1673ffffffffffffffffffffffffffffffffffffffff16815260200190815260200160002060020181905550505050565b60008060009054906101000a900473ffffffffffffffffffffffffffffffffffffffff16905090565b6106b4336104cd565b600081116106f7576040517f08c379a00000000000000000000000000000000000000000000000000000000081526004016106ee906124c0565b60405180910390fd5b80600160009054906101000a900473ffffffffffffffffffffffffffffffffffffffff1673ffffffffffffffffffffffffffffffffffffffff1663dd62ed3e33306040518363ffffffff1660e01b81526004016107559291906124e0565b602060405180830381865afa158015610772573d6000803e3d6000fd5b505050506040513d601f19601f82011682018060405250810190610796919061251e565b10156107d7576040517f08c379a00000000000000000000000000000000000000000000000000000000081526004016107ce90612597565b60405180910390fd5b6000600460003373ffffffffffffffffffffffffffffffffffffffff1673ffffffffffffffffffffffffffffffffffffffff168152602001908152602001600020600001540361093757600260149054906101000a900460ff16600460003373ffffffffffffffffffffffffffffffffffffffff1673ffffffffffffffffffffffffffffffffffffffff16815260200190815260200160002060050160006101000a81548160ff021916908360ff1602179055506000600460003373ffffffffffffffffffffffffffffffffffffffff1673ffffffffffffffffffffffffffffffffffffffff168152602001908152602001600020600401819055506006339080600181540180825580915050600190039060005260206000200160009091909190916101000a81548173ffffffffffffffffffffffffffffffffffffffff021916908373ffffffffffffffffffffffffffffffffffffffff1602179055505b80600460003373ffffffffffffffffffffffffffffffffffffffff1673ffffffffffffffffffffffffffffffffffffffff1681526020019081526020016000206000016000828254610989919061242f565b9250508190555042600460003373ffffffffffffffffffffffffffffffffffffffff1673ffffffffffffffffffffffffffffffffffffffff168152602001908152602001600020600301819055506000600460003373ffffffffffffffffffffffffffffffffffffffff1673ffffffffffffffffffffffffffffffffffffffff16815260200190815260200160002060010154600354600460003373ffffffffffffffffffffffffffffffffffffffff1673ffffffffffffffffffffffffffffffffffffffff16815260200190815260200160002060000154610a6c91906123fe565b610a769190612359565b905060005b81811015610b7557600260009054906101000a900473ffffffffffffffffffffffffffffffffffffffff1673ffffffffffffffffffffffffffffffffffffffff16636a627842336040518263ffffffff1660e01b8152600401610ade9190612101565b600060405180830381600087803b158015610af857600080fd5b505af1158015610b0c573d6000803e3d6000fd5b50505050600460003373ffffffffffffffffffffffffffffffffffffffff1673ffffffffffffffffffffffffffffffffffffffff1681526020019081526020016000206001016000815480929190610b63906125b7565b91905055508080600101915050610a7b565b50600160009054906101000a900473ffffffffffffffffffffffffffffffffffffffff1673ffffffffffffffffffffffffffffffffffffffff166323b872dd3330856040518463ffffffff1660e01b8152600401610bd5939291906125ff565b6020604051808303816000875af1158015610bf4573d6000803e3d6000fd5b505050506040513d601f19601f82011682018060405250810190610c18919061266e565b503373ffffffffffffffffffffffffffffffffffffffff167fd7210949ddd56ad0fea7fbc8948af686546c2f5258b85d85f5d3fd4655a5352d8342604051610c6192919061269b565b60405180910390a25050565b600260159054906101000a900460ff1681565b610c89336104cd565b6000600460003373ffffffffffffffffffffffffffffffffffffffff1673ffffffffffffffffffffffffffffffffffffffff1681526020019081526020016000206000015411610d0e576040517f08c379a0000000000000000000000000000000000000000000000000000000008152600401610d0590612710565b60405180910390fd5b6000600460003373ffffffffffffffffffffffffffffffffffffffff1673ffffffffffffffffffffffffffffffffffffffff1681526020019081526020016000206004015490506000600460003373ffffffffffffffffffffffffffffffffffffffff1673ffffffffffffffffffffffffffffffffffffffff16815260200190815260200160002060040181905550600160009054906101000a900473ffffffffffffffffffffffffffffffffffffffff1673ffffffffffffffffffffffffffffffffffffffff1663174e31c433836040518363ffffffff1660e01b8152600401610dfa929190612730565b600060405180830381600087803b158015610e1457600080fd5b505af1158015610e28573d6000803e3d6000fd5b505050503373ffffffffffffffffffffffffffffffffffffffff167fe74e5c9d4ac1fc33412485f18c159a0a391efe287ab3fd271123f30e6bacf4e38242604051610e7492919061269b565b60405180910390a250565b610e87611c41565b80600260146101000a81548160ff021916908360ff160217905550610eaa611d8c565b50565b6000600260149054906101000a900460ff1660ff16905090565b6060600560008373ffffffffffffffffffffffffffffffffffffffff1673ffffffffffffffffffffffffffffffffffffffff168152602001908152602001600020805480602002602001604051908101604052809291908181526020018280548015610f5257602002820191906000526020600020905b815481526020019060010190808311610f3e575b50505050509050919050565b60068181548110610f6e57600080fd5b906000526020600020016000915054906101000a900473ffffffffffffffffffffffffffffffffffffffff1681565b610fa6336104cd565b60008111610fe9576040517f08c379a0000000000000000000000000000000000000000000000000000000008152600401610fe0906124c0565b60405180910390fd5b80600460003373ffffffffffffffffffffffffffffffffffffffff1673ffffffffffffffffffffffffffffffffffffffff16815260200190815260200160002060000154101561106e576040517f08c379a0000000000000000000000000000000000000000000000000000000008152600401611065906127a5565b60405180910390fd5b600260169054906101000a900463ffffffff1663ffffffff16600460003373ffffffffffffffffffffffffffffffffffffffff1673ffffffffffffffffffffffffffffffffffffffff16815260200190815260200160002060030154426110d59190612359565b1015611116576040517f08c379a000000000000000000000000000000000000000000000000000000000815260040161110d90612811565b60405180910390fd5b80600460003373ffffffffffffffffffffffffffffffffffffffff1673ffffffffffffffffffffffffffffffffffffffff16815260200190815260200160002060000160008282546111689190612359565b92505081905550600160009054906101000a900473ffffffffffffffffffffffffffffffffffffffff1673ffffffffffffffffffffffffffffffffffffffff1663a9059cbb33836040518363ffffffff1660e01b81526004016111cc929190612730565b6020604051808303816000875af11580156111eb573d6000803e3d6000fd5b505050506040513d601f19601f8201168201806040525081019061120f919061266e565b503373ffffffffffffffffffffffffffffffffffffffff167fbeaca2bab4d701ffc02ef505ed5589fe9f722e358c45d3bfb8bd17e8e6a5e02a824260405161125892919061269b565b60405180910390a250565b600260149054906101000a900460ff1681565b61127e611c41565b600073ffffffffffffffffffffffffffffffffffffffff168173ffffffffffffffffffffffffffffffffffffffff16036112f05760006040517f1e4fbdf70000000000000000000000000000000000000000000000000000000081526004016112e79190612101565b60405180910390fd5b6112f981611cc8565b50565b611305336104cd565b3373ffffffffffffffffffffffffffffffffffffffff16600260009054906101000a900473ffffffffffffffffffffffffffffffffffffffff1673ffffffffffffffffffffffffffffffffffffffff16636352211e836040518263ffffffff1660e01b815260040161137791906120d7565b602060405180830381865afa158015611394573d6000803e3d6000fd5b505050506040513d601f19601f820116820180604052508101906113b89190612846565b73ffffffffffffffffffffffffffffffffffffffff161461140e576040517f08c379a0000000000000000000000000000000000000000000000000000000008152600401611405906128bf565b60405180910390fd5b600260009054906101000a900473ffffffffffffffffffffffffffffffffffffffff1673ffffffffffffffffffffffffffffffffffffffff1663646289e433836040518363ffffffff1660e01b815260040161146b929190612730565b600060405180830381600087803b15801561148557600080fd5b505af1158015611499573d6000803e3d6000fd5b50505050600460003373ffffffffffffffffffffffffffffffffffffffff1673ffffffffffffffffffffffffffffffffffffffff16815260200190815260200160002060010160008154809291906114f0906125b7565b9190505550600260159054906101000a900460ff16600460003373ffffffffffffffffffffffffffffffffffffffff1673ffffffffffffffffffffffffffffffffffffffff16815260200190815260200160002060050160008282829054906101000a900460ff1661156291906128df565b92506101000a81548160ff021916908360ff16021790555042600460003373ffffffffffffffffffffffffffffffffffffffff1673ffffffffffffffffffffffffffffffffffffffff168152602001908152602001600020600201819055506000600560003373ffffffffffffffffffffffffffffffffffffffff1673ffffffffffffffffffffffffffffffffffffffff168152602001908152602001600020905080829080600181540180825580915050600190039060005260206000200160009091909190915055600260009054906101000a900473ffffffffffffffffffffffffffffffffffffffff1673ffffffffffffffffffffffffffffffffffffffff166323b872dd3330856040518463ffffffff1660e01b815260040161168b939291906125ff565b600060405180830381600087803b1580156116a557600080fd5b505af11580156116b9573d6000803e3d6000fd5b505050503373ffffffffffffffffffffffffffffffffffffffff167fc865e78c42df7cc90b347a270055e15b892770e01974a967a64b2b4c29f34dbf834260405161170592919061269b565b60405180910390a25050565b61171a336104cd565b6000600560003373ffffffffffffffffffffffffffffffffffffffff1673ffffffffffffffffffffffffffffffffffffffff168152602001908152602001600020805490501161179f576040517f08c379a000000000000000000000000000000000000000000000000000000000815260040161179690612986565b60405180910390fd5b3073ffffffffffffffffffffffffffffffffffffffff16600260009054906101000a900473ffffffffffffffffffffffffffffffffffffffff1673ffffffffffffffffffffffffffffffffffffffff16636352211e836040518263ffffffff1660e01b815260040161181191906120d7565b602060405180830381865afa15801561182e573d6000803e3d6000fd5b505050506040513d601f19601f820116820180604052508101906118529190612846565b73ffffffffffffffffffffffffffffffffffffffff16146118a8576040517f08c379a000000000000000000000000000000000000000000000000000000000815260040161189f906129f2565b60405180910390fd5b600460003373ffffffffffffffffffffffffffffffffffffffff1673ffffffffffffffffffffffffffffffffffffffff16815260200190815260200160002060010160008154809291906118fb90612a12565b9190505550600260159054906101000a900460ff16600460003373ffffffffffffffffffffffffffffffffffffffff1673ffffffffffffffffffffffffffffffffffffffff16815260200190815260200160002060050160008282829054906101000a900460ff1661196d9190612a3b565b92506101000a81548160ff021916908360ff1602179055506000600560003373ffffffffffffffffffffffffffffffffffffffff1673ffffffffffffffffffffffffffffffffffffffff168152602001908152602001600020905060005b8180549050811015611a8357828282815481106119eb576119ea612a70565b5b906000526020600020015403611a76578160018380549050611a0d9190612359565b81548110611a1e57611a1d612a70565b5b9060005260206000200154828281548110611a3c57611a3b612a70565b5b906000526020600020018190555081805480611a5b57611a5a612a9f565b5b60019003818190600052602060002001600090559055611a83565b80806001019150506119cb565b50600260009054906101000a900473ffffffffffffffffffffffffffffffffffffffff1673ffffffffffffffffffffffffffffffffffffffff166344fae62633846040518363ffffffff1660e01b8152600401611ae1929190612730565b600060405180830381600087803b158015611afb57600080fd5b505af1158015611b0f573d6000803e3d6000fd5b50505050600260009054906101000a900473ffffffffffffffffffffffffffffffffffffffff1673ffffffffffffffffffffffffffffffffffffffff166323b872dd3033856040518463ffffffff1660e01b8152600401611b72939291906125ff565b600060405180830381600087803b158015611b8c57600080fd5b505af1158015611ba0573d6000803e3d6000fd5b505050503373ffffffffffffffffffffffffffffffffffffffff167f8f36718dd3717b5daa0afde2203476b3511e4a9cd9cdd730c8ff75758943f1738342604051611bec92919061269b565b60405180910390a25050565b60046020528060005260406000206000915090508060000154908060010154908060020154908060030154908060040154908060050160009054906101000a900460ff16905086565b611c49611ec7565b73ffffffffffffffffffffffffffffffffffffffff16611c67610682565b73ffffffffffffffffffffffffffffffffffffffff1614611cc657611c8a611ec7565b6040517f118cdaa7000000000000000000000000000000000000000000000000000000008152600401611cbd9190612101565b60405180910390fd5b565b60008060009054906101000a900473ffffffffffffffffffffffffffffffffffffffff169050816000806101000a81548173ffffffffffffffffffffffffffffffffffffffff021916908373ffffffffffffffffffffffffffffffffffffffff1602179055508173ffffffffffffffffffffffffffffffffffffffff168173ffffffffffffffffffffffffffffffffffffffff167f8be0079c531659141344cd1fd0a4f28419497f9722a3daafe3b4186f6b6457e060405160405180910390a35050565b60005b600680549050811015611ec457600060068281548110611db257611db1612a70565b5b9060005260206000200160009054906101000a900473ffffffffffffffffffffffffffffffffffffffff1690506000600460008373ffffffffffffffffffffffffffffffffffffffff1673ffffffffffffffffffffffffffffffffffffffff1681526020019081526020016000209050600260159054906101000a900460ff16600560008473ffffffffffffffffffffffffffffffffffffffff1673ffffffffffffffffffffffffffffffffffffffff16815260200190815260200160002080549050611e7f9190612ace565b600260149054906101000a900460ff16611e9991906128df565b8160050160006101000a81548160ff021916908360ff16021790555050508080600101915050611d8f565b50565b600033905090565b600073ffffffffffffffffffffffffffffffffffffffff82169050919050565b6000819050919050565b6000611f14611f0f611f0a84611ecf565b611eef565b611ecf565b9050919050565b6000611f2682611ef9565b9050919050565b6000611f3882611f1b565b9050919050565b611f4881611f2d565b82525050565b6000602082019050611f636000830184611f3f565b92915050565b6000611f7482611f1b565b9050919050565b611f8481611f69565b82525050565b6000602082019050611f9f6000830184611f7b565b92915050565b600063ffffffff82169050919050565b611fbe81611fa5565b82525050565b6000602082019050611fd96000830184611fb5565b92915050565b600080fd5b6000611fef82611ecf565b9050919050565b611fff81611fe4565b811461200a57600080fd5b50565b60008135905061201c81611ff6565b92915050565b60006020828403121561203857612037611fdf565b5b60006120468482850161200d565b91505092915050565b6000819050919050565b6120628161204f565b82525050565b600060ff82169050919050565b61207e81612068565b82525050565b600060a0820190506120996000830188612059565b6120a66020830187612059565b6120b36040830186612059565b6120c06060830185612059565b6120cd6080830184612075565b9695505050505050565b60006020820190506120ec6000830184612059565b92915050565b6120fb81611fe4565b82525050565b600060208201905061211660008301846120f2565b92915050565b6121258161204f565b811461213057600080fd5b50565b6000813590506121428161211c565b92915050565b60006020828403121561215e5761215d611fdf565b5b600061216c84828501612133565b91505092915050565b600060208201905061218a6000830184612075565b92915050565b61219981612068565b81146121a457600080fd5b50565b6000813590506121b681612190565b92915050565b6000602082840312156121d2576121d1611fdf565b5b60006121e0848285016121a7565b91505092915050565b600081519050919050565b600082825260208201905092915050565b6000819050602082019050919050565b61221e8161204f565b82525050565b60006122308383612215565b60208301905092915050565b6000602082019050919050565b6000612254826121e9565b61225e81856121f4565b935061226983612205565b8060005b8381101561229a5781516122818882612224565b975061228c8361223c565b92505060018101905061226d565b5085935050505092915050565b600060208201905081810360008301526122c18184612249565b905092915050565b600060c0820190506122de6000830189612059565b6122eb6020830188612059565b6122f86040830187612059565b6123056060830186612059565b6123126080830185612059565b61231f60a0830184612075565b979650505050505050565b7f4e487b7100000000000000000000000000000000000000000000000000000000600052601160045260246000fd5b60006123648261204f565b915061236f8361204f565b92508282039050818111156123875761238661232a565b5b92915050565b60006123988261204f565b91506123a38361204f565b92508282026123b18161204f565b915082820484148315176123c8576123c761232a565b5b5092915050565b7f4e487b7100000000000000000000000000000000000000000000000000000000600052601260045260246000fd5b60006124098261204f565b91506124148361204f565b925082612424576124236123cf565b5b828204905092915050565b600061243a8261204f565b91506124458361204f565b925082820190508082111561245d5761245c61232a565b5b92915050565b600082825260208201905092915050565b7f416d6f756e74206d7573742062652067726561746572207468616e2030000000600082015250565b60006124aa601d83612463565b91506124b582612474565b602082019050919050565b600060208201905081810360008301526124d98161249d565b9050919050565b60006040820190506124f560008301856120f2565b61250260208301846120f2565b9392505050565b6000815190506125188161211c565b92915050565b60006020828403121561253457612533611fdf565b5b600061254284828501612509565b91505092915050565b7f496e73756666696369656e7420616c6c6f77616e636500000000000000000000600082015250565b6000612581601683612463565b915061258c8261254b565b602082019050919050565b600060208201905081810360008301526125b081612574565b9050919050565b60006125c28261204f565b91507fffffffffffffffffffffffffffffffffffffffffffffffffffffffffffffffff82036125f4576125f361232a565b5b600182019050919050565b600060608201905061261460008301866120f2565b61262160208301856120f2565b61262e6040830184612059565b949350505050565b60008115159050919050565b61264b81612636565b811461265657600080fd5b50565b60008151905061266881612642565b92915050565b60006020828403121561268457612683611fdf565b5b600061269284828501612659565b91505092915050565b60006040820190506126b06000830185612059565b6126bd6020830184612059565b9392505050565b7f4e6f20746f6b656e73206465706f736974656400000000000000000000000000600082015250565b60006126fa601383612463565b9150612705826126c4565b602082019050919050565b60006020820190508181036000830152612729816126ed565b9050919050565b600060408201905061274560008301856120f2565b6127526020830184612059565b9392505050565b7f496e73756666696369656e742062616c616e6365000000000000000000000000600082015250565b600061278f601483612463565b915061279a82612759565b602082019050919050565b600060208201905081810360008301526127be81612782565b9050919050565b7f546f6b656e7320617265206c6f636b6564000000000000000000000000000000600082015250565b60006127fb601183612463565b9150612806826127c5565b602082019050919050565b6000602082019050818103600083015261282a816127ee565b9050919050565b60008151905061284081611ff6565b92915050565b60006020828403121561285c5761285b611fdf565b5b600061286a84828501612831565b91505092915050565b7f596f7520646f206e6f74206f776e2074686973204e4654000000000000000000600082015250565b60006128a9601783612463565b91506128b482612873565b602082019050919050565b600060208201905081810360008301526128d88161289c565b9050919050565b60006128ea82612068565b91506128f583612068565b9250828201905060ff81111561290e5761290d61232a565b5b92915050565b7f596f7520646f6e2774206861766520616e79204e465473206465706f7369746560008201527f6400000000000000000000000000000000000000000000000000000000000000602082015250565b6000612970602183612463565b915061297b82612914565b604082019050919050565b6000602082019050818103600083015261299f81612963565b9050919050565b7f4e4654206973206e6f74206465706f7369746564000000000000000000000000600082015250565b60006129dc601483612463565b91506129e7826129a6565b602082019050919050565b60006020820190508181036000830152612a0b816129cf565b9050919050565b6000612a1d8261204f565b915060008203612a3057612a2f61232a565b5b600182039050919050565b6000612a4682612068565b9150612a5183612068565b9250828203905060ff811115612a6a57612a6961232a565b5b92915050565b7f4e487b7100000000000000000000000000000000000000000000000000000000600052603260045260246000fd5b7f4e487b7100000000000000000000000000000000000000000000000000000000600052603160045260246000fd5b6000612ad982612068565b9150612ae483612068565b9250828202612af281612068565b9150808214612b0457612b0361232a565b5b509291505056fea2646970667358221220f4fc65367dcfa3ce4b422cdc247f8009f5da3245c229e4ce796fc71ec88b2bf764736f6c63430008180033",
  "linkReferences": {},
  "deployedLinkReferences": {}
}