{
  "_format": "hh-sol-artifact-1",
  "contractName": "NFTB",
  "sourceName": "contracts/NFTB.sol",
  "abi": [
    {
      "inputs": [],
      "stateMutability": "nonpayable",
      "type": "constructor"
    },
    {
      "inputs": [
        {
          "internalType": "address",
          "name": "sender",
          "type": "address"
        },
        {
          "internalType": "uint256",
          "name": "tokenId",
          "type": "uint256"
        },
        {
          "internalType": "address",
          "name": "owner",
          "type": "address"
        }
      ],
      "name": "ERC721IncorrectOwner",
      "type": "error"
    },
    {
      "inputs": [
        {
          "internalType": "address",
          "name": "operator",
          "type": "address"
        },
        {
          "internalType": "uint256",
          "name": "tokenId",
          "type": "uint256"
        }
      ],
      "name": "ERC721InsufficientApproval",
      "type": "error"
    },
    {
      "inputs": [
        {
          "internalType": "address",
          "name": "approver",
          "type": "address"
        }
      ],
      "name": "ERC721InvalidApprover",
      "type": "error"
    },
    {
      "inputs": [
        {
          "internalType": "address",
          "name": "operator",
          "type": "address"
        }
      ],
      "name": "ERC721InvalidOperator",
      "type": "error"
    },
    {
      "inputs": [
        {
          "internalType": "address",
          "name": "owner",
          "type": "address"
        }
      ],
      "name": "ERC721InvalidOwner",
      "type": "error"
    },
    {
      "inputs": [
        {
          "internalType": "address",
          "name": "receiver",
          "type": "address"
        }
      ],
      "name": "ERC721InvalidReceiver",
      "type": "error"
    },
    {
      "inputs": [
        {
          "internalType": "address",
          "name": "sender",
          "type": "address"
        }
      ],
      "name": "ERC721InvalidSender",
      "type": "error"
    },
    {
      "inputs": [
        {
          "internalType": "uint256",
          "name": "tokenId",
          "type": "uint256"
        }
      ],
      "name": "ERC721NonexistentToken",
      "type": "error"
    },
    {
      "anonymous": false,
      "inputs": [
        {
          "indexed": true,
          "internalType": "address",
          "name": "owner",
          "type": "address"
        },
        {
          "indexed": true,
          "internalType": "address",
          "name": "approved",
          "type": "address"
        },
        {
          "indexed": true,
          "internalType": "uint256",
          "name": "tokenId",
          "type": "uint256"
        }
      ],
      "name": "Approval",
      "type": "event"
    },
    {
      "anonymous": false,
      "inputs": [
        {
          "indexed": true,
          "internalType": "address",
          "name": "owner",
          "type": "address"
        },
        {
          "indexed": true,
          "internalType": "address",
          "name": "operator",
          "type": "address"
        },
        {
          "indexed": false,
          "internalType": "bool",
          "name": "approved",
          "type": "bool"
        }
      ],
      "name": "ApprovalForAll",
      "type": "event"
    },
    {
      "anonymous": false,
      "inputs": [
        {
          "indexed": true,
          "internalType": "address",
          "name": "from",
          "type": "address"
        },
        {
          "indexed": true,
          "internalType": "address",
          "name": "to",
          "type": "address"
        },
        {
          "indexed": true,
          "internalType": "uint256",
          "name": "tokenId",
          "type": "uint256"
        }
      ],
      "name": "Transfer",
      "type": "event"
    },
    {
      "inputs": [
        {
          "internalType": "address",
          "name": "owner",
          "type": "address"
        },
        {
          "internalType": "uint256",
          "name": "tokenId",
          "type": "uint256"
        }
      ],
      "name": "addOwnedToken",
      "outputs": [],
      "stateMutability": "nonpayable",
      "type": "function"
    },
    {
      "inputs": [
        {
          "internalType": "address",
          "name": "to",
          "type": "address"
        },
        {
          "internalType": "uint256",
          "name": "tokenId",
          "type": "uint256"
        }
      ],
      "name": "approve",
      "outputs": [],
      "stateMutability": "nonpayable",
      "type": "function"
    },
    {
      "inputs": [
        {
          "internalType": "address",
          "name": "owner",
          "type": "address"
        }
      ],
      "name": "balanceOf",
      "outputs": [
        {
          "internalType": "uint256",
          "name": "",
          "type": "uint256"
        }
      ],
      "stateMutability": "view",
      "type": "function"
    },
    {
      "inputs": [
        {
          "internalType": "uint256",
          "name": "tokenId",
          "type": "uint256"
        }
      ],
      "name": "getApproved",
      "outputs": [
        {
          "internalType": "address",
          "name": "",
          "type": "address"
        }
      ],
      "stateMutability": "view",
      "type": "function"
    },
    {
      "inputs": [
        {
          "internalType": "address",
          "name": "owner",
          "type": "address"
        }
      ],
      "name": "getBalanceNFT",
      "outputs": [
        {
          "internalType": "uint256",
          "name": "",
          "type": "uint256"
        }
      ],
      "stateMutability": "view",
      "type": "function"
    },
    {
      "inputs": [
        {
          "internalType": "address",
          "name": "owner",
          "type": "address"
        }
      ],
      "name": "getOwnedTokens",
      "outputs": [
        {
          "internalType": "uint256[]",
          "name": "",
          "type": "uint256[]"
        }
      ],
      "stateMutability": "view",
      "type": "function"
    },
    {
      "inputs": [
        {
          "internalType": "address",
          "name": "owner",
          "type": "address"
        },
        {
          "internalType": "address",
          "name": "operator",
          "type": "address"
        }
      ],
      "name": "isApprovedForAll",
      "outputs": [
        {
          "internalType": "bool",
          "name": "",
          "type": "bool"
        }
      ],
      "stateMutability": "view",
      "type": "function"
    },
    {
      "inputs": [
        {
          "internalType": "address",
          "name": "_to",
          "type": "address"
        }
      ],
      "name": "mint",
      "outputs": [],
      "stateMutability": "nonpayable",
      "type": "function"
    },
    {
      "inputs": [],
      "name": "name",
      "outputs": [
        {
          "internalType": "string",
          "name": "",
          "type": "string"
        }
      ],
      "stateMutability": "view",
      "type": "function"
    },
    {
      "inputs": [
        {
          "internalType": "uint256",
          "name": "tokenId",
          "type": "uint256"
        }
      ],
      "name": "ownerOf",
      "outputs": [
        {
          "internalType": "address",
          "name": "",
          "type": "address"
        }
      ],
      "stateMutability": "view",
      "type": "function"
    },
    {
      "inputs": [
        {
          "internalType": "address",
          "name": "owner",
          "type": "address"
        },
        {
          "internalType": "uint256",
          "name": "tokenId",
          "type": "uint256"
        }
      ],
      "name": "removeOwnedToken",
      "outputs": [],
      "stateMutability": "nonpayable",
      "type": "function"
    },
    {
      "inputs": [
        {
          "internalType": "address",
          "name": "from",
          "type": "address"
        },
        {
          "internalType": "address",
          "name": "to",
          "type": "address"
        },
        {
          "internalType": "uint256",
          "name": "tokenId",
          "type": "uint256"
        }
      ],
      "name": "safeTransferFrom",
      "outputs": [],
      "stateMutability": "nonpayable",
      "type": "function"
    },
    {
      "inputs": [
        {
          "internalType": "address",
          "name": "from",
          "type": "address"
        },
        {
          "internalType": "address",
          "name": "to",
          "type": "address"
        },
        {
          "internalType": "uint256",
          "name": "tokenId",
          "type": "uint256"
        },
        {
          "internalType": "bytes",
          "name": "data",
          "type": "bytes"
        }
      ],
      "name": "safeTransferFrom",
      "outputs": [],
      "stateMutability": "nonpayable",
      "type": "function"
    },
    {
      "inputs": [
        {
          "internalType": "address",
          "name": "operator",
          "type": "address"
        },
        {
          "internalType": "bool",
          "name": "approved",
          "type": "bool"
        }
      ],
      "name": "setApprovalForAll",
      "outputs": [],
      "stateMutability": "nonpayable",
      "type": "function"
    },
    {
      "inputs": [
        {
          "internalType": "bytes4",
          "name": "interfaceId",
          "type": "bytes4"
        }
      ],
      "name": "supportsInterface",
      "outputs": [
        {
          "internalType": "bool",
          "name": "",
          "type": "bool"
        }
      ],
      "stateMutability": "view",
      "type": "function"
    },
    {
      "inputs": [],
      "name": "symbol",
      "outputs": [
        {
          "internalType": "string",
          "name": "",
          "type": "string"
        }
      ],
      "stateMutability": "view",
      "type": "function"
    },
    {
      "inputs": [
        {
          "internalType": "uint256",
          "name": "tokenId",
          "type": "uint256"
        }
      ],
      "name": "tokenURI",
      "outputs": [
        {
          "internalType": "string",
          "name": "",
          "type": "string"
        }
      ],
      "stateMutability": "view",
      "type": "function"
    },
    {
      "inputs": [
        {
          "internalType": "address",
          "name": "from",
          "type": "address"
        },
        {
          "internalType": "address",
          "name": "to",
          "type": "address"
        },
        {
          "internalType": "uint256",
          "name": "tokenId",
          "type": "uint256"
        }
      ],
      "name": "transferFrom",
      "outputs": [],
      "stateMutability": "nonpayable",
      "type": "function"
    }
  ],
  "bytecode": "0x60806040523480156200001157600080fd5b506040518060400160405280600481526020017f4e465442000000000000000000000000000000000000000000000000000000008152506040518060400160405280600481526020017f4e4654420000000000000000000000000000000000000000000000000000000081525081600090816200008f91906200032c565b508060019081620000a191906200032c565b505050600060068190555062000413565b600081519050919050565b7f4e487b7100000000000000000000000000000000000000000000000000000000600052604160045260246000fd5b7f4e487b7100000000000000000000000000000000000000000000000000000000600052602260045260246000fd5b600060028204905060018216806200013457607f821691505b6020821081036200014a5762000149620000ec565b5b50919050565b60008190508160005260206000209050919050565b60006020601f8301049050919050565b600082821b905092915050565b600060088302620001b47fffffffffffffffffffffffffffffffffffffffffffffffffffffffffffffffff8262000175565b620001c0868362000175565b95508019841693508086168417925050509392505050565b6000819050919050565b6000819050919050565b60006200020d620002076200020184620001d8565b620001e2565b620001d8565b9050919050565b6000819050919050565b6200022983620001ec565b62000241620002388262000214565b84845462000182565b825550505050565b600090565b6200025862000249565b620002658184846200021e565b505050565b5b818110156200028d57620002816000826200024e565b6001810190506200026b565b5050565b601f821115620002dc57620002a68162000150565b620002b18462000165565b81016020851015620002c1578190505b620002d9620002d08562000165565b8301826200026a565b50505b505050565b600082821c905092915050565b60006200030160001984600802620002e1565b1980831691505092915050565b60006200031c8383620002ee565b9150826002028217905092915050565b6200033782620000b2565b67ffffffffffffffff811115620003535762000352620000bd565b5b6200035f82546200011b565b6200036c82828562000291565b600060209050601f831160018114620003a457600084156200038f578287015190505b6200039b85826200030e565b8655506200040b565b601f198416620003b48662000150565b60005b82811015620003de57848901518255600182019150602085019450602081019050620003b7565b86831015620003fe5784890151620003fa601f891682620002ee565b8355505b6001600288020188555050505b505050505050565b61232780620004236000396000f3fe608060405234801561001057600080fd5b50600436106101165760003560e01c8063646289e4116100a2578063a22cb46511610071578063a22cb465146102ef578063b88d4fde1461030b578063c87b56dd14610327578063d9d6165514610357578063e985e9c51461038757610116565b8063646289e4146102695780636a6278421461028557806370a08231146102a157806395d89b41146102d157610116565b8063095ea7b3116100e9578063095ea7b3146101c957806323b872dd146101e557806342842e0e1461020157806344fae6261461021d5780636352211e1461023957610116565b806301ffc9a71461011b578063062d49d41461014b57806306fdde031461017b578063081812fc14610199575b600080fd5b6101356004803603810190610130919061199c565b6103b7565b60405161014291906119e4565b60405180910390f35b61016560048036038101906101609190611a5d565b610499565b6040516101729190611aa3565b60405180910390f35b6101836104ab565b6040516101909190611b4e565b60405180910390f35b6101b360048036038101906101ae9190611b9c565b61053d565b6040516101c09190611bd8565b60405180910390f35b6101e360048036038101906101de9190611bf3565b610559565b005b6101ff60048036038101906101fa9190611c33565b61056f565b005b61021b60048036038101906102169190611c33565b610671565b005b61023760048036038101906102329190611bf3565b610691565b005b610253600480360381019061024e9190611b9c565b6106fb565b6040516102609190611bd8565b60405180910390f35b610283600480360381019061027e9190611bf3565b61070d565b005b61029f600480360381019061029a9190611a5d565b610811565b005b6102bb60048036038101906102b69190611a5d565b6108a2565b6040516102c89190611aa3565b60405180910390f35b6102d961095c565b6040516102e69190611b4e565b60405180910390f35b61030960048036038101906103049190611cb2565b6109ee565b005b61032560048036038101906103209190611e27565b610a04565b005b610341600480360381019061033c9190611b9c565b610a21565b60405161034e9190611b4e565b60405180910390f35b610371600480360381019061036c9190611a5d565b610a8a565b60405161037e9190611f68565b60405180910390f35b6103a1600480360381019061039c9190611f8a565b610b21565b6040516103ae91906119e4565b60405180910390f35b60007f80ac58cd000000000000000000000000000000000000000000000000000000007bffffffffffffffffffffffffffffffffffffffffffffffffffffffff1916827bffffffffffffffffffffffffffffffffffffffffffffffffffffffff1916148061048257507f5b5e139f000000000000000000000000000000000000000000000000000000007bffffffffffffffffffffffffffffffffffffffffffffffffffffffff1916827bffffffffffffffffffffffffffffffffffffffffffffffffffffffff1916145b80610492575061049182610bb5565b5b9050919050565b60006104a4826108a2565b9050919050565b6060600080546104ba90611ff9565b80601f01602080910402602001604051908101604052809291908181526020018280546104e690611ff9565b80156105335780601f1061050857610100808354040283529160200191610533565b820191906000526020600020905b81548152906001019060200180831161051657829003601f168201915b5050505050905090565b600061054882610c1f565b5061055282610ca7565b9050919050565b61056b8282610566610ce4565b610cec565b5050565b600073ffffffffffffffffffffffffffffffffffffffff168273ffffffffffffffffffffffffffffffffffffffff16036105e15760006040517f64a0ae920000000000000000000000000000000000000000000000000000000081526004016105d89190611bd8565b60405180910390fd5b60006105f583836105f0610ce4565b610cfe565b90508373ffffffffffffffffffffffffffffffffffffffff168173ffffffffffffffffffffffffffffffffffffffff161461066b578382826040517f64283d7b0000000000000000000000000000000000000000000000000000000081526004016106629392919061202a565b60405180910390fd5b50505050565b61068c83838360405180602001604052806000815250610a04565b505050565b600760008373ffffffffffffffffffffffffffffffffffffffff1673ffffffffffffffffffffffffffffffffffffffff1681526020019081526020016000208190806001815401808255809150506001900390600052602060002001600090919091909150555050565b600061070682610c1f565b9050919050565b6000600760008473ffffffffffffffffffffffffffffffffffffffff1673ffffffffffffffffffffffffffffffffffffffff168152602001908152602001600020905060005b818054905081101561080b578282828154811061077357610772612061565b5b9060005260206000200154036107fe57816001838054905061079591906120bf565b815481106107a6576107a5612061565b5b90600052602060002001548282815481106107c4576107c3612061565b5b9060005260206000200181905550818054806107e3576107e26120f3565b5b6001900381819060005260206000200160009055905561080b565b8080600101915050610753565b50505050565b61081d81600654610f18565b600760008273ffffffffffffffffffffffffffffffffffffffff1673ffffffffffffffffffffffffffffffffffffffff16815260200190815260200160002060065490806001815401808255809150506001900390600052602060002001600090919091909150556001600660008282546108989190612122565b9250508190555050565b60008073ffffffffffffffffffffffffffffffffffffffff168273ffffffffffffffffffffffffffffffffffffffff16036109155760006040517f89c62b6400000000000000000000000000000000000000000000000000000000815260040161090c9190611bd8565b60405180910390fd5b600360008373ffffffffffffffffffffffffffffffffffffffff1673ffffffffffffffffffffffffffffffffffffffff168152602001908152602001600020549050919050565b60606001805461096b90611ff9565b80601f016020809104026020016040519081016040528092919081815260200182805461099790611ff9565b80156109e45780601f106109b9576101008083540402835291602001916109e4565b820191906000526020600020905b8154815290600101906020018083116109c757829003601f168201915b5050505050905090565b610a006109f9610ce4565b8383610f36565b5050565b610a0f84848461056f565b610a1b848484846110a5565b50505050565b6060610a2c82610c1f565b506000610a3761125c565b90506000815111610a575760405180602001604052806000815250610a82565b80610a6184611273565b604051602001610a72929190612192565b6040516020818303038152906040525b915050919050565b6060600760008373ffffffffffffffffffffffffffffffffffffffff1673ffffffffffffffffffffffffffffffffffffffff168152602001908152602001600020805480602002602001604051908101604052809291908181526020018280548015610b1557602002820191906000526020600020905b815481526020019060010190808311610b01575b50505050509050919050565b6000600560008473ffffffffffffffffffffffffffffffffffffffff1673ffffffffffffffffffffffffffffffffffffffff16815260200190815260200160002060008373ffffffffffffffffffffffffffffffffffffffff1673ffffffffffffffffffffffffffffffffffffffff16815260200190815260200160002060009054906101000a900460ff16905092915050565b60007f01ffc9a7000000000000000000000000000000000000000000000000000000007bffffffffffffffffffffffffffffffffffffffffffffffffffffffff1916827bffffffffffffffffffffffffffffffffffffffffffffffffffffffff1916149050919050565b600080610c2b83611341565b9050600073ffffffffffffffffffffffffffffffffffffffff168173ffffffffffffffffffffffffffffffffffffffff1603610c9e57826040517f7e273289000000000000000000000000000000000000000000000000000000008152600401610c959190611aa3565b60405180910390fd5b80915050919050565b60006004600083815260200190815260200160002060009054906101000a900473ffffffffffffffffffffffffffffffffffffffff169050919050565b600033905090565b610cf9838383600161137e565b505050565b600080610d0a84611341565b9050600073ffffffffffffffffffffffffffffffffffffffff168373ffffffffffffffffffffffffffffffffffffffff1614610d4c57610d4b818486611543565b5b600073ffffffffffffffffffffffffffffffffffffffff168173ffffffffffffffffffffffffffffffffffffffff1614610ddd57610d8e60008560008061137e565b6001600360008373ffffffffffffffffffffffffffffffffffffffff1673ffffffffffffffffffffffffffffffffffffffff168152602001908152602001600020600082825403925050819055505b600073ffffffffffffffffffffffffffffffffffffffff168573ffffffffffffffffffffffffffffffffffffffff1614610e60576001600360008773ffffffffffffffffffffffffffffffffffffffff1673ffffffffffffffffffffffffffffffffffffffff168152602001908152602001600020600082825401925050819055505b846002600086815260200190815260200160002060006101000a81548173ffffffffffffffffffffffffffffffffffffffff021916908373ffffffffffffffffffffffffffffffffffffffff160217905550838573ffffffffffffffffffffffffffffffffffffffff168273ffffffffffffffffffffffffffffffffffffffff167fddf252ad1be2c89b69c2b068fc378daa952ba7f163c4a11628f55a4df523b3ef60405160405180910390a4809150509392505050565b610f32828260405180602001604052806000815250611607565b5050565b600073ffffffffffffffffffffffffffffffffffffffff168273ffffffffffffffffffffffffffffffffffffffff1603610fa757816040517f5b08ba18000000000000000000000000000000000000000000000000000000008152600401610f9e9190611bd8565b60405180910390fd5b80600560008573ffffffffffffffffffffffffffffffffffffffff1673ffffffffffffffffffffffffffffffffffffffff16815260200190815260200160002060008473ffffffffffffffffffffffffffffffffffffffff1673ffffffffffffffffffffffffffffffffffffffff16815260200190815260200160002060006101000a81548160ff0219169083151502179055508173ffffffffffffffffffffffffffffffffffffffff168373ffffffffffffffffffffffffffffffffffffffff167f17307eab39ab6107e8899845ad3d59bd9653f200f220920489ca2b5937696c318360405161109891906119e4565b60405180910390a3505050565b60008373ffffffffffffffffffffffffffffffffffffffff163b1115611256578273ffffffffffffffffffffffffffffffffffffffff1663150b7a026110e9610ce4565b8685856040518563ffffffff1660e01b815260040161110b949392919061220b565b6020604051808303816000875af192505050801561114757506040513d601f19601f82011682018060405250810190611144919061226c565b60015b6111cb573d8060008114611177576040519150601f19603f3d011682016040523d82523d6000602084013e61117c565b606091505b5060008151036111c357836040517f64a0ae920000000000000000000000000000000000000000000000000000000081526004016111ba9190611bd8565b60405180910390fd5b805181602001fd5b63150b7a0260e01b7bffffffffffffffffffffffffffffffffffffffffffffffffffffffff1916817bffffffffffffffffffffffffffffffffffffffffffffffffffffffff19161461125457836040517f64a0ae9200000000000000000000000000000000000000000000000000000000815260040161124b9190611bd8565b60405180910390fd5b505b50505050565b606060405180602001604052806000815250905090565b60606000600161128284611623565b01905060008167ffffffffffffffff8111156112a1576112a0611cfc565b5b6040519080825280601f01601f1916602001820160405280156112d35781602001600182028036833780820191505090505b509050600082602001820190505b600115611336578080600190039150507f3031323334353637383961626364656600000000000000000000000000000000600a86061a8153600a858161132a57611329612299565b5b049450600085036112e1575b819350505050919050565b60006002600083815260200190815260200160002060009054906101000a900473ffffffffffffffffffffffffffffffffffffffff169050919050565b80806113b75750600073ffffffffffffffffffffffffffffffffffffffff168273ffffffffffffffffffffffffffffffffffffffff1614155b156114eb5760006113c784610c1f565b9050600073ffffffffffffffffffffffffffffffffffffffff168373ffffffffffffffffffffffffffffffffffffffff161415801561143257508273ffffffffffffffffffffffffffffffffffffffff168173ffffffffffffffffffffffffffffffffffffffff1614155b801561144557506114438184610b21565b155b1561148757826040517fa9fbf51f00000000000000000000000000000000000000000000000000000000815260040161147e9190611bd8565b60405180910390fd5b81156114e957838573ffffffffffffffffffffffffffffffffffffffff168273ffffffffffffffffffffffffffffffffffffffff167f8c5be1e5ebec7d5bd14f71427d1e84f3dd0314c0f7b2291e5b200ac8c7c3b92560405160405180910390a45b505b836004600085815260200190815260200160002060006101000a81548173ffffffffffffffffffffffffffffffffffffffff021916908373ffffffffffffffffffffffffffffffffffffffff16021790555050505050565b61154e838383611776565b61160257600073ffffffffffffffffffffffffffffffffffffffff168373ffffffffffffffffffffffffffffffffffffffff16036115c357806040517f7e2732890000000000000000000000000000000000000000000000000000000081526004016115ba9190611aa3565b60405180910390fd5b81816040517f177e802f0000000000000000000000000000000000000000000000000000000081526004016115f99291906122c8565b60405180910390fd5b505050565b6116118383611837565b61161e60008484846110a5565b505050565b600080600090507a184f03e93ff9f4daa797ed6e38ed64bf6a1f0100000000000000008310611681577a184f03e93ff9f4daa797ed6e38ed64bf6a1f010000000000000000838161167757611676612299565b5b0492506040810190505b6d04ee2d6d415b85acef810000000083106116be576d04ee2d6d415b85acef810000000083816116b4576116b3612299565b5b0492506020810190505b662386f26fc1000083106116ed57662386f26fc1000083816116e3576116e2612299565b5b0492506010810190505b6305f5e1008310611716576305f5e100838161170c5761170b612299565b5b0492506008810190505b612710831061173b57612710838161173157611730612299565b5b0492506004810190505b6064831061175e576064838161175457611753612299565b5b0492506002810190505b600a831061176d576001810190505b80915050919050565b60008073ffffffffffffffffffffffffffffffffffffffff168373ffffffffffffffffffffffffffffffffffffffff161415801561182e57508273ffffffffffffffffffffffffffffffffffffffff168473ffffffffffffffffffffffffffffffffffffffff1614806117ef57506117ee8484610b21565b5b8061182d57508273ffffffffffffffffffffffffffffffffffffffff1661181583610ca7565b73ffffffffffffffffffffffffffffffffffffffff16145b5b90509392505050565b600073ffffffffffffffffffffffffffffffffffffffff168273ffffffffffffffffffffffffffffffffffffffff16036118a95760006040517f64a0ae920000000000000000000000000000000000000000000000000000000081526004016118a09190611bd8565b60405180910390fd5b60006118b783836000610cfe565b9050600073ffffffffffffffffffffffffffffffffffffffff168173ffffffffffffffffffffffffffffffffffffffff161461192b5760006040517f73c6ac6e0000000000000000000000000000000000000000000000000000000081526004016119229190611bd8565b60405180910390fd5b505050565b6000604051905090565b600080fd5b600080fd5b60007fffffffff0000000000000000000000000000000000000000000000000000000082169050919050565b61197981611944565b811461198457600080fd5b50565b60008135905061199681611970565b92915050565b6000602082840312156119b2576119b161193a565b5b60006119c084828501611987565b91505092915050565b60008115159050919050565b6119de816119c9565b82525050565b60006020820190506119f960008301846119d5565b92915050565b600073ffffffffffffffffffffffffffffffffffffffff82169050919050565b6000611a2a826119ff565b9050919050565b611a3a81611a1f565b8114611a4557600080fd5b50565b600081359050611a5781611a31565b92915050565b600060208284031215611a7357611a7261193a565b5b6000611a8184828501611a48565b91505092915050565b6000819050919050565b611a9d81611a8a565b82525050565b6000602082019050611ab86000830184611a94565b92915050565b600081519050919050565b600082825260208201905092915050565b60005b83811015611af8578082015181840152602081019050611add565b60008484015250505050565b6000601f19601f8301169050919050565b6000611b2082611abe565b611b2a8185611ac9565b9350611b3a818560208601611ada565b611b4381611b04565b840191505092915050565b60006020820190508181036000830152611b688184611b15565b905092915050565b611b7981611a8a565b8114611b8457600080fd5b50565b600081359050611b9681611b70565b92915050565b600060208284031215611bb257611bb161193a565b5b6000611bc084828501611b87565b91505092915050565b611bd281611a1f565b82525050565b6000602082019050611bed6000830184611bc9565b92915050565b60008060408385031215611c0a57611c0961193a565b5b6000611c1885828601611a48565b9250506020611c2985828601611b87565b9150509250929050565b600080600060608486031215611c4c57611c4b61193a565b5b6000611c5a86828701611a48565b9350506020611c6b86828701611a48565b9250506040611c7c86828701611b87565b9150509250925092565b611c8f816119c9565b8114611c9a57600080fd5b50565b600081359050611cac81611c86565b92915050565b60008060408385031215611cc957611cc861193a565b5b6000611cd785828601611a48565b9250506020611ce885828601611c9d565b9150509250929050565b600080fd5b600080fd5b7f4e487b7100000000000000000000000000000000000000000000000000000000600052604160045260246000fd5b611d3482611b04565b810181811067ffffffffffffffff82111715611d5357611d52611cfc565b5b80604052505050565b6000611d66611930565b9050611d728282611d2b565b919050565b600067ffffffffffffffff821115611d9257611d91611cfc565b5b611d9b82611b04565b9050602081019050919050565b82818337600083830152505050565b6000611dca611dc584611d77565b611d5c565b905082815260208101848484011115611de657611de5611cf7565b5b611df1848285611da8565b509392505050565b600082601f830112611e0e57611e0d611cf2565b5b8135611e1e848260208601611db7565b91505092915050565b60008060008060808587031215611e4157611e4061193a565b5b6000611e4f87828801611a48565b9450506020611e6087828801611a48565b9350506040611e7187828801611b87565b925050606085013567ffffffffffffffff811115611e9257611e9161193f565b5b611e9e87828801611df9565b91505092959194509250565b600081519050919050565b600082825260208201905092915050565b6000819050602082019050919050565b611edf81611a8a565b82525050565b6000611ef18383611ed6565b60208301905092915050565b6000602082019050919050565b6000611f1582611eaa565b611f1f8185611eb5565b9350611f2a83611ec6565b8060005b83811015611f5b578151611f428882611ee5565b9750611f4d83611efd565b925050600181019050611f2e565b5085935050505092915050565b60006020820190508181036000830152611f828184611f0a565b905092915050565b60008060408385031215611fa157611fa061193a565b5b6000611faf85828601611a48565b9250506020611fc085828601611a48565b9150509250929050565b7f4e487b7100000000000000000000000000000000000000000000000000000000600052602260045260246000fd5b6000600282049050600182168061201157607f821691505b60208210810361202457612023611fca565b5b50919050565b600060608201905061203f6000830186611bc9565b61204c6020830185611a94565b6120596040830184611bc9565b949350505050565b7f4e487b7100000000000000000000000000000000000000000000000000000000600052603260045260246000fd5b7f4e487b7100000000000000000000000000000000000000000000000000000000600052601160045260246000fd5b60006120ca82611a8a565b91506120d583611a8a565b92508282039050818111156120ed576120ec612090565b5b92915050565b7f4e487b7100000000000000000000000000000000000000000000000000000000600052603160045260246000fd5b600061212d82611a8a565b915061213883611a8a565b92508282019050808211156121505761214f612090565b5b92915050565b600081905092915050565b600061216c82611abe565b6121768185612156565b9350612186818560208601611ada565b80840191505092915050565b600061219e8285612161565b91506121aa8284612161565b91508190509392505050565b600081519050919050565b600082825260208201905092915050565b60006121dd826121b6565b6121e781856121c1565b93506121f7818560208601611ada565b61220081611b04565b840191505092915050565b60006080820190506122206000830187611bc9565b61222d6020830186611bc9565b61223a6040830185611a94565b818103606083015261224c81846121d2565b905095945050505050565b60008151905061226681611970565b92915050565b6000602082840312156122825761228161193a565b5b600061229084828501612257565b91505092915050565b7f4e487b7100000000000000000000000000000000000000000000000000000000600052601260045260246000fd5b60006040820190506122dd6000830185611bc9565b6122ea6020830184611a94565b939250505056fea264697066735822122083e447b496328208162f69e96eccf71756eb6f71a4bac7fc80ef697b0bbc0cd964736f6c63430008180033",
  "linkReferences": {},
  "deployedLinkReferences": {}
}