{
  "_format": "hh-sol-artifact-1",
  "contractName": "TokenA",
  "sourceName": "contracts/TokenA.sol",
  "abi": [
    {
      "inputs": [],
      "stateMutability": "nonpayable",
      "type": "constructor"
    },
    {
      "inputs": [
        {
          "internalType": "address",
          "name": "spender",
          "type": "address"
        },
        {
          "internalType": "uint256",
          "name": "allowance",
          "type": "uint256"
        },
        {
          "internalType": "uint256",
          "name": "needed",
          "type": "uint256"
        }
      ],
      "name": "ERC20InsufficientAllowance",
      "type": "error"
    },
    {
      "inputs": [
        {
          "internalType": "address",
          "name": "sender",
          "type": "address"
        },
        {
          "internalType": "uint256",
          "name": "balance",
          "type": "uint256"
        },
        {
          "internalType": "uint256",
          "name": "needed",
          "type": "uint256"
        }
      ],
      "name": "ERC20InsufficientBalance",
      "type": "error"
    },
    {
      "inputs": [
        {
          "internalType": "address",
          "name": "approver",
          "type": "address"
        }
      ],
      "name": "ERC20InvalidApprover",
      "type": "error"
    },
    {
      "inputs": [
        {
          "internalType": "address",
          "name": "receiver",
          "type": "address"
        }
      ],
      "name": "ERC20InvalidReceiver",
      "type": "error"
    },
    {
      "inputs": [
        {
          "internalType": "address",
          "name": "sender",
          "type": "address"
        }
      ],
      "name": "ERC20InvalidSender",
      "type": "error"
    },
    {
      "inputs": [
        {
          "internalType": "address",
          "name": "spender",
          "type": "address"
        }
      ],
      "name": "ERC20InvalidSpender",
      "type": "error"
    },
    {
      "inputs": [
        {
          "internalType": "address",
          "name": "owner",
          "type": "address"
        }
      ],
      "name": "OwnableInvalidOwner",
      "type": "error"
    },
    {
      "inputs": [
        {
          "internalType": "address",
          "name": "account",
          "type": "address"
        }
      ],
      "name": "OwnableUnauthorizedAccount",
      "type": "error"
    },
    {
      "anonymous": false,
      "inputs": [
        {
          "indexed": true,
          "internalType": "address",
          "name": "owner",
          "type": "address"
        },
        {
          "indexed": true,
          "internalType": "address",
          "name": "spender",
          "type": "address"
        },
        {
          "indexed": false,
          "internalType": "uint256",
          "name": "value",
          "type": "uint256"
        }
      ],
      "name": "Approval",
      "type": "event"
    },
    {
      "anonymous": false,
      "inputs": [
        {
          "indexed": true,
          "internalType": "address",
          "name": "previousOwner",
          "type": "address"
        },
        {
          "indexed": true,
          "internalType": "address",
          "name": "newOwner",
          "type": "address"
        }
      ],
      "name": "OwnershipTransferred",
      "type": "event"
    },
    {
      "anonymous": false,
      "inputs": [
        {
          "indexed": true,
          "internalType": "address",
          "name": "from",
          "type": "address"
        },
        {
          "indexed": true,
          "internalType": "address",
          "name": "to",
          "type": "address"
        },
        {
          "indexed": false,
          "internalType": "uint256",
          "name": "value",
          "type": "uint256"
        }
      ],
      "name": "Transfer",
      "type": "event"
    },
    {
      "inputs": [
        {
          "internalType": "address",
          "name": "owner",
          "type": "address"
        },
        {
          "internalType": "address",
          "name": "spender",
          "type": "address"
        }
      ],
      "name": "allowance",
      "outputs": [
        {
          "internalType": "uint256",
          "name": "",
          "type": "uint256"
        }
      ],
      "stateMutability": "view",
      "type": "function"
    },
    {
      "inputs": [
        {
          "internalType": "address",
          "name": "spender",
          "type": "address"
        },
        {
          "internalType": "uint256",
          "name": "value",
          "type": "uint256"
        }
      ],
      "name": "approve",
      "outputs": [
        {
          "internalType": "bool",
          "name": "",
          "type": "bool"
        }
      ],
      "stateMutability": "nonpayable",
      "type": "function"
    },
    {
      "inputs": [
        {
          "internalType": "address",
          "name": "operator",
          "type": "address"
        }
      ],
      "name": "approveForTransfer",
      "outputs": [],
      "stateMutability": "nonpayable",
      "type": "function"
    },
    {
      "inputs": [
        {
          "internalType": "address",
          "name": "account",
          "type": "address"
        }
      ],
      "name": "balanceOf",
      "outputs": [
        {
          "internalType": "uint256",
          "name": "",
          "type": "uint256"
        }
      ],
      "stateMutability": "view",
      "type": "function"
    },
    {
      "inputs": [],
      "name": "cap",
      "outputs": [
        {
          "internalType": "uint256",
          "name": "",
          "type": "uint256"
        }
      ],
      "stateMutability": "view",
      "type": "function"
    },
    {
      "inputs": [
        {
          "internalType": "address",
          "name": "to",
          "type": "address"
        },
        {
          "internalType": "uint256",
          "name": "amount",
          "type": "uint256"
        }
      ],
      "name": "claimReward",
      "outputs": [],
      "stateMutability": "nonpayable",
      "type": "function"
    },
    {
      "inputs": [],
      "name": "decimals",
      "outputs": [
        {
          "internalType": "uint8",
          "name": "",
          "type": "uint8"
        }
      ],
      "stateMutability": "view",
      "type": "function"
    },
    {
      "inputs": [
        {
          "internalType": "uint256",
          "name": "_amount",
          "type": "uint256"
        }
      ],
      "name": "faucet",
      "outputs": [],
      "stateMutability": "nonpayable",
      "type": "function"
    },
    {
      "inputs": [],
      "name": "name",
      "outputs": [
        {
          "internalType": "string",
          "name": "",
          "type": "string"
        }
      ],
      "stateMutability": "view",
      "type": "function"
    },
    {
      "inputs": [],
      "name": "owner",
      "outputs": [
        {
          "internalType": "address",
          "name": "",
          "type": "address"
        }
      ],
      "stateMutability": "view",
      "type": "function"
    },
    {
      "inputs": [],
      "name": "renounceOwnership",
      "outputs": [],
      "stateMutability": "nonpayable",
      "type": "function"
    },
    {
      "inputs": [],
      "name": "symbol",
      "outputs": [
        {
          "internalType": "string",
          "name": "",
          "type": "string"
        }
      ],
      "stateMutability": "view",
      "type": "function"
    },
    {
      "inputs": [],
      "name": "totalSupply",
      "outputs": [
        {
          "internalType": "uint256",
          "name": "",
          "type": "uint256"
        }
      ],
      "stateMutability": "view",
      "type": "function"
    },
    {
      "inputs": [
        {
          "internalType": "address",
          "name": "to",
          "type": "address"
        },
        {
          "internalType": "uint256",
          "name": "value",
          "type": "uint256"
        }
      ],
      "name": "transfer",
      "outputs": [
        {
          "internalType": "bool",
          "name": "",
          "type": "bool"
        }
      ],
      "stateMutability": "nonpayable",
      "type": "function"
    },
    {
      "inputs": [
        {
          "internalType": "address",
          "name": "from",
          "type": "address"
        },
        {
          "internalType": "address",
          "name": "to",
          "type": "address"
        },
        {
          "internalType": "uint256",
          "name": "value",
          "type": "uint256"
        }
      ],
      "name": "transferFrom",
      "outputs": [
        {
          "internalType": "bool",
          "name": "",
          "type": "bool"
        }
      ],
      "stateMutability": "nonpayable",
      "type": "function"
    },
    {
      "inputs": [
        {
          "internalType": "address",
          "name": "newOwner",
          "type": "address"
        }
      ],
      "name": "transferOwnership",
      "outputs": [],
      "stateMutability": "nonpayable",
      "type": "function"
    },
    {
      "inputs": [
        {
          "internalType": "address",
          "name": "to",
          "type": "address"
        },
        {
          "internalType": "uint256",
          "name": "amount",
          "type": "uint256"
        }
      ],
      "name": "transferToUser",
      "outputs": [],
      "stateMutability": "nonpayable",
      "type": "function"
    }
  ],
  "bytecode": "0x60806040526012600a620000149190620008c5565b640ba43b740062000026919062000916565b6006553480156200003657600080fd5b50336040518060400160405280600681526020017f546f6b656e4100000000000000000000000000000000000000000000000000008152506040518060400160405280600381526020017f544b4100000000000000000000000000000000000000000000000000000000008152508160039081620000b5919062000bd1565b508060049081620000c7919062000bd1565b505050600073ffffffffffffffffffffffffffffffffffffffff168173ffffffffffffffffffffffffffffffffffffffff16036200013f5760006040517f1e4fbdf700000000000000000000000000000000000000000000000000000000815260040162000136919062000cfd565b60405180910390fd5b62000150816200018060201b60201c565b5062000165336006546200024660201b60201c565b6200017930600654620002d360201b60201c565b5062000dc0565b6000600560009054906101000a900473ffffffffffffffffffffffffffffffffffffffff16905081600560006101000a81548173ffffffffffffffffffffffffffffffffffffffff021916908373ffffffffffffffffffffffffffffffffffffffff1602179055508173ffffffffffffffffffffffffffffffffffffffff168173ffffffffffffffffffffffffffffffffffffffff167f8be0079c531659141344cd1fd0a4f28419497f9722a3daafe3b4186f6b6457e060405160405180910390a35050565b600073ffffffffffffffffffffffffffffffffffffffff168273ffffffffffffffffffffffffffffffffffffffff1603620002bb5760006040517fec442f05000000000000000000000000000000000000000000000000000000008152600401620002b2919062000cfd565b60405180910390fd5b620002cf600083836200030660201b60201c565b5050565b600080620002e66200053660201b60201c565b9050620002fb8185856200053e60201b60201c565b600191505092915050565b600073ffffffffffffffffffffffffffffffffffffffff168373ffffffffffffffffffffffffffffffffffffffff16036200035c5780600260008282546200034f919062000d1a565b9250508190555062000432565b60008060008573ffffffffffffffffffffffffffffffffffffffff1673ffffffffffffffffffffffffffffffffffffffff16815260200190815260200160002054905081811015620003eb578381836040517fe450d38c000000000000000000000000000000000000000000000000000000008152600401620003e29392919062000d66565b60405180910390fd5b8181036000808673ffffffffffffffffffffffffffffffffffffffff1673ffffffffffffffffffffffffffffffffffffffff16815260200190815260200160002081905550505b600073ffffffffffffffffffffffffffffffffffffffff168273ffffffffffffffffffffffffffffffffffffffff16036200047d5780600260008282540392505081905550620004ca565b806000808473ffffffffffffffffffffffffffffffffffffffff1673ffffffffffffffffffffffffffffffffffffffff168152602001908152602001600020600082825401925050819055505b8173ffffffffffffffffffffffffffffffffffffffff168373ffffffffffffffffffffffffffffffffffffffff167fddf252ad1be2c89b69c2b068fc378daa952ba7f163c4a11628f55a4df523b3ef8360405162000529919062000da3565b60405180910390a3505050565b600033905090565b6200055383838360016200055860201b60201c565b505050565b600073ffffffffffffffffffffffffffffffffffffffff168473ffffffffffffffffffffffffffffffffffffffff1603620005cd5760006040517fe602df05000000000000000000000000000000000000000000000000000000008152600401620005c4919062000cfd565b60405180910390fd5b600073ffffffffffffffffffffffffffffffffffffffff168373ffffffffffffffffffffffffffffffffffffffff1603620006425760006040517f94280d6200000000000000000000000000000000000000000000000000000000815260040162000639919062000cfd565b60405180910390fd5b81600160008673ffffffffffffffffffffffffffffffffffffffff1673ffffffffffffffffffffffffffffffffffffffff16815260200190815260200160002060008573ffffffffffffffffffffffffffffffffffffffff1673ffffffffffffffffffffffffffffffffffffffff16815260200190815260200160002081905550801562000732578273ffffffffffffffffffffffffffffffffffffffff168473ffffffffffffffffffffffffffffffffffffffff167f8c5be1e5ebec7d5bd14f71427d1e84f3dd0314c0f7b2291e5b200ac8c7c3b9258460405162000729919062000da3565b60405180910390a35b50505050565b7f4e487b7100000000000000000000000000000000000000000000000000000000600052601160045260246000fd5b60008160011c9050919050565b6000808291508390505b6001851115620007c6578086048111156200079e576200079d62000738565b5b6001851615620007ae5780820291505b8081029050620007be8562000767565b94506200077e565b94509492505050565b600082620007e15760019050620008b4565b81620007f15760009050620008b4565b81600181146200080a576002811462000815576200084b565b6001915050620008b4565b60ff8411156200082a576200082962000738565b5b8360020a91508482111562000844576200084362000738565b5b50620008b4565b5060208310610133831016604e8410600b8410161715620008855782820a9050838111156200087f576200087e62000738565b5b620008b4565b62000894848484600162000774565b92509050818404811115620008ae57620008ad62000738565b5b81810290505b9392505050565b6000819050919050565b6000620008d282620008bb565b9150620008df83620008bb565b92506200090e7fffffffffffffffffffffffffffffffffffffffffffffffffffffffffffffffff8484620007cf565b905092915050565b60006200092382620008bb565b91506200093083620008bb565b92508282026200094081620008bb565b915082820484148315176200095a576200095962000738565b5b5092915050565b600081519050919050565b7f4e487b7100000000000000000000000000000000000000000000000000000000600052604160045260246000fd5b7f4e487b7100000000000000000000000000000000000000000000000000000000600052602260045260246000fd5b60006002820490506001821680620009e357607f821691505b602082108103620009f957620009f86200099b565b5b50919050565b60008190508160005260206000209050919050565b60006020601f8301049050919050565b600082821b905092915050565b60006008830262000a637fffffffffffffffffffffffffffffffffffffffffffffffffffffffffffffffff8262000a24565b62000a6f868362000a24565b95508019841693508086168417925050509392505050565b6000819050919050565b600062000ab262000aac62000aa684620008bb565b62000a87565b620008bb565b9050919050565b6000819050919050565b62000ace8362000a91565b62000ae662000add8262000ab9565b84845462000a31565b825550505050565b600090565b62000afd62000aee565b62000b0a81848462000ac3565b505050565b5b8181101562000b325762000b2660008262000af3565b60018101905062000b10565b5050565b601f82111562000b815762000b4b81620009ff565b62000b568462000a14565b8101602085101562000b66578190505b62000b7e62000b758562000a14565b83018262000b0f565b50505b505050565b600082821c905092915050565b600062000ba66000198460080262000b86565b1980831691505092915050565b600062000bc1838362000b93565b9150826002028217905092915050565b62000bdc8262000961565b67ffffffffffffffff81111562000bf85762000bf76200096c565b5b62000c048254620009ca565b62000c1182828562000b36565b600060209050601f83116001811462000c49576000841562000c34578287015190505b62000c40858262000bb3565b86555062000cb0565b601f19841662000c5986620009ff565b60005b8281101562000c835784890151825560018201915060208501945060208101905062000c5c565b8683101562000ca3578489015162000c9f601f89168262000b93565b8355505b6001600288020188555050505b505050505050565b600073ffffffffffffffffffffffffffffffffffffffff82169050919050565b600062000ce58262000cb8565b9050919050565b62000cf78162000cd8565b82525050565b600060208201905062000d14600083018462000cec565b92915050565b600062000d2782620008bb565b915062000d3483620008bb565b925082820190508082111562000d4f5762000d4e62000738565b5b92915050565b62000d6081620008bb565b82525050565b600060608201905062000d7d600083018662000cec565b62000d8c602083018562000d55565b62000d9b604083018462000d55565b949350505050565b600060208201905062000dba600083018462000d55565b92915050565b6116518062000dd06000396000f3fe608060405234801561001057600080fd5b506004361061010b5760003560e01c80635f7807a4116100a257806395d89b411161007157806395d89b4114610294578063a9059cbb146102b2578063dd62ed3e146102e2578063ee3d079f14610312578063f2fde38b1461032e5761010b565b80635f7807a41461022057806370a082311461023c578063715018a61461026c5780638da5cb5b146102765761010b565b806323b872dd116100de57806323b872dd14610198578063313ce567146101c8578063355274ea146101e657806357915897146102045761010b565b806306fdde0314610110578063095ea7b31461012e578063174e31c41461015e57806318160ddd1461017a575b600080fd5b61011861034a565b6040516101259190611110565b60405180910390f35b610148600480360381019061014391906111cb565b6103dc565b6040516101559190611226565b60405180910390f35b610178600480360381019061017391906111cb565b6103ff565b005b61018261049b565b60405161018f9190611250565b60405180910390f35b6101b260048036038101906101ad919061126b565b6104a5565b6040516101bf9190611226565b60405180910390f35b6101d06104d4565b6040516101dd91906112da565b60405180910390f35b6101ee6104dd565b6040516101fb9190611250565b60405180910390f35b61021e600480360381019061021991906112f5565b6104e3565b005b61023a600480360381019061023591906111cb565b6105c1565b005b61025660048036038101906102519190611322565b61065e565b6040516102639190611250565b60405180910390f35b6102746106a6565b005b61027e6106ba565b60405161028b919061135e565b60405180910390f35b61029c6106e4565b6040516102a99190611110565b60405180910390f35b6102cc60048036038101906102c791906111cb565b610776565b6040516102d99190611226565b60405180910390f35b6102fc60048036038101906102f79190611379565b610799565b6040516103099190611250565b60405180910390f35b61032c60048036038101906103279190611322565b610820565b005b61034860048036038101906103439190611322565b610883565b005b606060038054610359906113e8565b80601f0160208091040260200160405190810160405280929190818152602001828054610385906113e8565b80156103d25780601f106103a7576101008083540402835291602001916103d2565b820191906000526020600020905b8154815290600101906020018083116103b557829003601f168201915b5050505050905090565b6000806103e7610909565b90506103f4818585610911565b600191505092915050565b33600760008273ffffffffffffffffffffffffffffffffffffffff1673ffffffffffffffffffffffffffffffffffffffff16815260200190815260200160002060009054906101000a900460ff1661048c576040517f08c379a000000000000000000000000000000000000000000000000000000000815260040161048390611465565b60405180910390fd5b6104968383610923565b505050565b6000600254905090565b6000806104b0610909565b90506104bd8582856109af565b6104c8858585610a43565b60019150509392505050565b60006012905090565b60065481565b6104f46104ee6106ba565b30610799565b811115610536576040517f08c379a000000000000000000000000000000000000000000000000000000000815260040161052d906114d1565b60405180910390fd5b3073ffffffffffffffffffffffffffffffffffffffff166323b872dd61055a6106ba565b33846040518463ffffffff1660e01b815260040161057a939291906114f1565b6020604051808303816000875af1158015610599573d6000803e3d6000fd5b505050506040513d601f19601f820116820180604052508101906105bd9190611554565b5050565b33600760008273ffffffffffffffffffffffffffffffffffffffff1673ffffffffffffffffffffffffffffffffffffffff16815260200190815260200160002060009054906101000a900460ff1661064e576040517f08c379a000000000000000000000000000000000000000000000000000000000815260040161064590611465565b60405180910390fd5b610659338484610a43565b505050565b60008060008373ffffffffffffffffffffffffffffffffffffffff1673ffffffffffffffffffffffffffffffffffffffff168152602001908152602001600020549050919050565b6106ae610b37565b6106b86000610bbe565b565b6000600560009054906101000a900473ffffffffffffffffffffffffffffffffffffffff16905090565b6060600480546106f3906113e8565b80601f016020809104026020016040519081016040528092919081815260200182805461071f906113e8565b801561076c5780601f106107415761010080835404028352916020019161076c565b820191906000526020600020905b81548152906001019060200180831161074f57829003601f168201915b5050505050905090565b600080610781610909565b905061078e818585610a43565b600191505092915050565b6000600160008473ffffffffffffffffffffffffffffffffffffffff1673ffffffffffffffffffffffffffffffffffffffff16815260200190815260200160002060008373ffffffffffffffffffffffffffffffffffffffff1673ffffffffffffffffffffffffffffffffffffffff16815260200190815260200160002054905092915050565b610828610b37565b6001600760008373ffffffffffffffffffffffffffffffffffffffff1673ffffffffffffffffffffffffffffffffffffffff16815260200190815260200160002060006101000a81548160ff02191690831515021790555050565b61088b610b37565b600073ffffffffffffffffffffffffffffffffffffffff168173ffffffffffffffffffffffffffffffffffffffff16036108fd5760006040517f1e4fbdf70000000000000000000000000000000000000000000000000000000081526004016108f4919061135e565b60405180910390fd5b61090681610bbe565b50565b600033905090565b61091e8383836001610c84565b505050565b3073ffffffffffffffffffffffffffffffffffffffff166323b872dd6109476106ba565b84846040518463ffffffff1660e01b8152600401610967939291906114f1565b6020604051808303816000875af1158015610986573d6000803e3d6000fd5b505050506040513d601f19601f820116820180604052508101906109aa9190611554565b505050565b60006109bb8484610799565b90507fffffffffffffffffffffffffffffffffffffffffffffffffffffffffffffffff8114610a3d5781811015610a2d578281836040517ffb8f41b2000000000000000000000000000000000000000000000000000000008152600401610a2493929190611581565b60405180910390fd5b610a3c84848484036000610c84565b5b50505050565b600073ffffffffffffffffffffffffffffffffffffffff168373ffffffffffffffffffffffffffffffffffffffff1603610ab55760006040517f96c6fd1e000000000000000000000000000000000000000000000000000000008152600401610aac919061135e565b60405180910390fd5b600073ffffffffffffffffffffffffffffffffffffffff168273ffffffffffffffffffffffffffffffffffffffff1603610b275760006040517fec442f05000000000000000000000000000000000000000000000000000000008152600401610b1e919061135e565b60405180910390fd5b610b32838383610e5b565b505050565b610b3f610909565b73ffffffffffffffffffffffffffffffffffffffff16610b5d6106ba565b73ffffffffffffffffffffffffffffffffffffffff1614610bbc57610b80610909565b6040517f118cdaa7000000000000000000000000000000000000000000000000000000008152600401610bb3919061135e565b60405180910390fd5b565b6000600560009054906101000a900473ffffffffffffffffffffffffffffffffffffffff16905081600560006101000a81548173ffffffffffffffffffffffffffffffffffffffff021916908373ffffffffffffffffffffffffffffffffffffffff1602179055508173ffffffffffffffffffffffffffffffffffffffff168173ffffffffffffffffffffffffffffffffffffffff167f8be0079c531659141344cd1fd0a4f28419497f9722a3daafe3b4186f6b6457e060405160405180910390a35050565b600073ffffffffffffffffffffffffffffffffffffffff168473ffffffffffffffffffffffffffffffffffffffff1603610cf65760006040517fe602df05000000000000000000000000000000000000000000000000000000008152600401610ced919061135e565b60405180910390fd5b600073ffffffffffffffffffffffffffffffffffffffff168373ffffffffffffffffffffffffffffffffffffffff1603610d685760006040517f94280d62000000000000000000000000000000000000000000000000000000008152600401610d5f919061135e565b60405180910390fd5b81600160008673ffffffffffffffffffffffffffffffffffffffff1673ffffffffffffffffffffffffffffffffffffffff16815260200190815260200160002060008573ffffffffffffffffffffffffffffffffffffffff1673ffffffffffffffffffffffffffffffffffffffff168152602001908152602001600020819055508015610e55578273ffffffffffffffffffffffffffffffffffffffff168473ffffffffffffffffffffffffffffffffffffffff167f8c5be1e5ebec7d5bd14f71427d1e84f3dd0314c0f7b2291e5b200ac8c7c3b92584604051610e4c9190611250565b60405180910390a35b50505050565b600073ffffffffffffffffffffffffffffffffffffffff168373ffffffffffffffffffffffffffffffffffffffff1603610ead578060026000828254610ea191906115e7565b92505081905550610f80565b60008060008573ffffffffffffffffffffffffffffffffffffffff1673ffffffffffffffffffffffffffffffffffffffff16815260200190815260200160002054905081811015610f39578381836040517fe450d38c000000000000000000000000000000000000000000000000000000008152600401610f3093929190611581565b60405180910390fd5b8181036000808673ffffffffffffffffffffffffffffffffffffffff1673ffffffffffffffffffffffffffffffffffffffff16815260200190815260200160002081905550505b600073ffffffffffffffffffffffffffffffffffffffff168273ffffffffffffffffffffffffffffffffffffffff1603610fc95780600260008282540392505081905550611016565b806000808473ffffffffffffffffffffffffffffffffffffffff1673ffffffffffffffffffffffffffffffffffffffff168152602001908152602001600020600082825401925050819055505b8173ffffffffffffffffffffffffffffffffffffffff168373ffffffffffffffffffffffffffffffffffffffff167fddf252ad1be2c89b69c2b068fc378daa952ba7f163c4a11628f55a4df523b3ef836040516110739190611250565b60405180910390a3505050565b600081519050919050565b600082825260208201905092915050565b60005b838110156110ba57808201518184015260208101905061109f565b60008484015250505050565b6000601f19601f8301169050919050565b60006110e282611080565b6110ec818561108b565b93506110fc81856020860161109c565b611105816110c6565b840191505092915050565b6000602082019050818103600083015261112a81846110d7565b905092915050565b600080fd5b600073ffffffffffffffffffffffffffffffffffffffff82169050919050565b600061116282611137565b9050919050565b61117281611157565b811461117d57600080fd5b50565b60008135905061118f81611169565b92915050565b6000819050919050565b6111a881611195565b81146111b357600080fd5b50565b6000813590506111c58161119f565b92915050565b600080604083850312156111e2576111e1611132565b5b60006111f085828601611180565b9250506020611201858286016111b6565b9150509250929050565b60008115159050919050565b6112208161120b565b82525050565b600060208201905061123b6000830184611217565b92915050565b61124a81611195565b82525050565b60006020820190506112656000830184611241565b92915050565b60008060006060848603121561128457611283611132565b5b600061129286828701611180565b93505060206112a386828701611180565b92505060406112b4868287016111b6565b9150509250925092565b600060ff82169050919050565b6112d4816112be565b82525050565b60006020820190506112ef60008301846112cb565b92915050565b60006020828403121561130b5761130a611132565b5b6000611319848285016111b6565b91505092915050565b60006020828403121561133857611337611132565b5b600061134684828501611180565b91505092915050565b61135881611157565b82525050565b6000602082019050611373600083018461134f565b92915050565b600080604083850312156113905761138f611132565b5b600061139e85828601611180565b92505060206113af85828601611180565b9150509250929050565b7f4e487b7100000000000000000000000000000000000000000000000000000000600052602260045260246000fd5b6000600282049050600182168061140057607f821691505b602082108103611413576114126113b9565b5b50919050565b7f45524332303a204e6f7420617070726f76656420666f72207472616e73666572600082015250565b600061144f60208361108b565b915061145a82611419565b602082019050919050565b6000602082019050818103600083015261147e81611442565b9050919050565b7f546f6b656e413a204e6f7420656e6f75676820616c6c6f77616e636500000000600082015250565b60006114bb601c8361108b565b91506114c682611485565b602082019050919050565b600060208201905081810360008301526114ea816114ae565b9050919050565b6000606082019050611506600083018661134f565b611513602083018561134f565b6115206040830184611241565b949350505050565b6115318161120b565b811461153c57600080fd5b50565b60008151905061154e81611528565b92915050565b60006020828403121561156a57611569611132565b5b60006115788482850161153f565b91505092915050565b6000606082019050611596600083018661134f565b6115a36020830185611241565b6115b06040830184611241565b949350505050565b7f4e487b7100000000000000000000000000000000000000000000000000000000600052601160045260246000fd5b60006115f282611195565b91506115fd83611195565b9250828201905080821115611615576116146115b8565b5b9291505056fea2646970667358221220ff45a1b786a22dd010d6d5601fe634f7cbeb24f6a071b83088213a7462b4a21764736f6c63430008180033",
  "linkReferences": {},
  "deployedLinkReferences": {}
}